{
  "transactions": [
    {
      "hash": "0x61c070257f85f7adae3fb23a25437247e45e15eaf53559138df6609837e0e513",
      "transactionType": "CALL",
      "contractName": null,
      "contractAddress": "0x8ac76a51cc950d9822d68b83fe1ad97b32cd580d",
      "function": "approve(address,uint256)",
      "arguments": [
        "0x1a2f750170474D4c54f8d318D9d4343588b4C4D1",
        "100000000000000000000"
      ],
      "transaction": {
        "from": "0xfadf8382db9468e9f303746edc3b95af83489c2a",
        "to": "0x8ac76a51cc950d9822d68b83fe1ad97b32cd580d",
        "gas": "0x12065",
        "value": "0x0",
        "input": "0x095ea7b30000000000000000000000001a2f750170474d4c54f8d318d9d4343588b4c4d10000000000000000000000000000000000000000000000056bc75e2d63100000",
        "nonce": "0xa",
        "chainId": "0x38"
      },
      "additionalContracts": [],
      "isFixedGasLimit": false
    },
    {
      "hash": "0xe98a1d375ba42ee089f9660b481b49355aec6a94c3ab531e61fd60d5c28cd299",
      "transactionType": "CALL",
      "contractName": null,
      "contractAddress": "0x1a2f750170474d4c54f8d318d9d4343588b4c4d1",
      "function": "depositToNode(address,uint256)",
      "arguments": [
        "0x8AC76a51cc950d9822D68b83fE1Ad97B32Cd580d",
        "100000000000000000000"
      ],
      "transaction": {
        "from": "0xfadf8382db9468e9f303746edc3b95af83489c2a",
        "to": "0x1a2f750170474d4c54f8d318d9d4343588b4c4d1",
        "gas": "0x212fd",
        "value": "0x0",
        "input": "0xb65b78d10000000000000000000000008ac76a51cc950d9822d68b83fe1ad97b32cd580d0000000000000000000000000000000000000000000000056bc75e2d63100000",
        "nonce": "0xb",
        "chainId": "0x38"
      },
      "additionalContracts": [],
      "isFixedGasLimit": false
    }
  ],
  "receipts": [
    {
      "type": "0x2",
      "status": "0x1",
      "cumulativeGasUsed": "0x2c16cb",
      "logs": [
        {
          "address": "0x8ac76a51cc950d9822d68b83fe1ad97b32cd580d",
          "topics": [
            "0x8c5be1e5ebec7d5bd14f71427d1e84f3dd0314c0f7b2291e5b200ac8c7c3b925",
            "0x000000000000000000000000fadf8382db9468e9f303746edc3b95af83489c2a",
            "0x0000000000000000000000001a2f750170474d4c54f8d318d9d4343588b4c4d1"
          ],
          "data": "0x0000000000000000000000000000000000000000000000056bc75e2d63100000",
          "blockHash": "0x9e4aa876deefb041524ae2f8eba3940ddedb583a4c45afaeb59f6ffc0117b55f",
          "blockNumber": "0x63e28f0",
          "blockTimestamp": "0x6a326da4",
          "transactionHash": "0x61c070257f85f7adae3fb23a25437247e45e15eaf53559138df6609837e0e513",
          "transactionIndex": "0xe",
          "logIndex": "0x58",
          "removed": false
        }
      ],
      "logsBloom": "0x00000000000000000000000000000000000000000000000000400000000000000000000000000000000000000000000000000000000000000000000002200080000000000000000000000000000000000000000000000000000000000000000000000000000000000000000000000000000000000000000000000000000000000000000000000000000000000000008000000000000000000000000000000080020000000400000000000000000000000000000000000000000000000000000000000000000000000000000000000000000000000000200000000000000000000010000000004040000000000000000000000000000000000000000000000000",
      "transactionHash": "0x61c070257f85f7adae3fb23a25437247e45e15eaf53559138df6609837e0e513",
      "transactionIndex": "0xe",
      "blockHash": "0x9e4aa876deefb041524ae2f8eba3940ddedb583a4c45afaeb59f6ffc0117b55f",
      "blockNumber": "0x63e28f0",
      "gasUsed": "0xd0cc",
      "effectiveGasPrice": "0x2faf080",
      "from": "0xfadf8382db9468e9f303746edc3b95af83489c2a",
      "to": "0x8ac76a51cc950d9822d68b83fe1ad97b32cd580d",
      "contractAddress": null
    },
    {
      "type": "0x2",
      "status": "0x1",
      "cumulativeGasUsed": "0x2d81dd",
      "logs": [
        {
          "address": "0x8ac76a51cc950d9822d68b83fe1ad97b32cd580d",
          "topics": [
            "0xddf252ad1be2c89b69c2b068fc378daa952ba7f163c4a11628f55a4df523b3ef",
            "0x000000000000000000000000fadf8382db9468e9f303746edc3b95af83489c2a",
            "0x0000000000000000000000001a2f750170474d4c54f8d318d9d4343588b4c4d1"
          ],
          "data": "0x0000000000000000000000000000000000000000000000056bc75e2d63100000",
          "blockHash": "0x9e4aa876deefb041524ae2f8eba3940ddedb583a4c45afaeb59f6ffc0117b55f",
          "blockNumber": "0x63e28f0",
          "blockTimestamp": "0x6a326da4",
          "transactionHash": "0xe98a1d375ba42ee089f9660b481b49355aec6a94c3ab531e61fd60d5c28cd299",
          "transactionIndex": "0xf",
          "logIndex": "0x59",
          "removed": false
        },
        {
          "address": "0x8ac76a51cc950d9822d68b83fe1ad97b32cd580d",
          "topics": [
            "0x8c5be1e5ebec7d5bd14f71427d1e84f3dd0314c0f7b2291e5b200ac8c7c3b925",
            "0x000000000000000000000000fadf8382db9468e9f303746edc3b95af83489c2a",
            "0x0000000000000000000000001a2f750170474d4c54f8d318d9d4343588b4c4d1"
          ],
          "data": "0x0000000000000000000000000000000000000000000000000000000000000000",
          "blockHash": "0x9e4aa876deefb041524ae2f8eba3940ddedb583a4c45afaeb59f6ffc0117b55f",
          "blockNumber": "0x63e28f0",
          "blockTimestamp": "0x6a326da4",
          "transactionHash": "0xe98a1d375ba42ee089f9660b481b49355aec6a94c3ab531e61fd60d5c28cd299",
          "transactionIndex": "0xf",
          "logIndex": "0x5a",
          "removed": false
        },
        {
          "address": "0x1a2f750170474d4c54f8d318d9d4343588b4c4d1",
          "topics": [
            "0x2da466a7b24304f47e87fa2e1e5a81b9831ce54fec19055ce277ca2f39ba42c4",
            "0x0000000000000000000000008ac76a51cc950d9822d68b83fe1ad97b32cd580d"
          ],
          "data": "0x0000000000000000000000000000000000000000000000056bc75e2d63100000",
          "blockHash": "0x9e4aa876deefb041524ae2f8eba3940ddedb583a4c45afaeb59f6ffc0117b55f",
          "blockNumber": "0x63e28f0",
          "blockTimestamp": "0x6a326da4",
          "transactionHash": "0xe98a1d375ba42ee089f9660b481b49355aec6a94c3ab531e61fd60d5c28cd299",
          "transactionIndex": "0xf",
          "logIndex": "0x5b",
          "removed": false
        },
        {
          "address": "0x1a2f750170474d4c54f8d318d9d4343588b4c4d1",
          "topics": [
            "0x05f47829691a1f710b0620aedd52749bb09d8abe4bb530d306db920a71b0d7ce",
            "0x0000000000000000000000008ac76a51cc950d9822d68b83fe1ad97b32cd580d"
          ],
          "data": "0x0000000000000000000000000000000000000000000000056bc75e2d63100000",
          "blockHash": "0x9e4aa876deefb041524ae2f8eba3940ddedb583a4c45afaeb59f6ffc0117b55f",
          "blockNumber": "0x63e28f0",
          "blockTimestamp": "0x6a326da4",
          "transactionHash": "0xe98a1d375ba42ee089f9660b481b49355aec6a94c3ab531e61fd60d5c28cd299",
          "transactionIndex": "0xf",
          "logIndex": "0x5c",
          "removed": false
        }
      ],
      "logsBloom": "0x00000000000000000000000000000000000000000000000000400000040000000000000000000000000000000000000000000000000000000000000002200080000000000000000000000008000000000000000000000000000040000000202000000000000000000000000000000000000000008000000008000010000200008000000000000000000000000080008000000000000000000000000000000080020000000400000000000000000000000000000000000000000000000000000000000002000000000000000000000000000000020000200000000000000000000050000000004040000000000000000000000000000000000000000000000000",
      "transactionHash": "0xe98a1d375ba42ee089f9660b481b49355aec6a94c3ab531e61fd60d5c28cd299",
      "transactionIndex": "0xf",
      "blockHash": "0x9e4aa876deefb041524ae2f8eba3940ddedb583a4c45afaeb59f6ffc0117b55f",
      "blockNumber": "0x63e28f0",
      "gasUsed": "0x16b12",
      "effectiveGasPrice": "0x2faf080",
      "from": "0xfadf8382db9468e9f303746edc3b95af83489c2a",
      "to": "0x1a2f750170474d4c54f8d318d9d4343588b4c4d1",
      "contractAddress": null
    }
  ],
  "libraries": [],
  "pending": [],
  "returns": {},
  "timestamp": 1781689765538,
  "chain": 56,
  "commit": "f246c8b2"
}