{
  "transactions": [
    {
      "hash": "0xc066092debd184d7d4bdca5224210798340e508d97042f6b8de26ac20194614a",
      "transactionType": "CALL",
      "contractName": null,
      "contractAddress": "0x3c499c542cef5e3811e1192ce70d8cc03d5c3359",
      "function": "approve(address,uint256)",
      "arguments": [
        "0x1a2f750170474D4c54f8d318D9d4343588b4C4D1",
        "200000000"
      ],
      "transaction": {
        "from": "0xfadf8382db9468e9f303746edc3b95af83489c2a",
        "to": "0x3c499c542cef5e3811e1192ce70d8cc03d5c3359",
        "gas": "0x12b1b",
        "value": "0x0",
        "input": "0x095ea7b30000000000000000000000001a2f750170474d4c54f8d318d9d4343588b4c4d1000000000000000000000000000000000000000000000000000000000bebc200",
        "nonce": "0xa",
        "chainId": "0x89"
      },
      "additionalContracts": [],
      "isFixedGasLimit": false
    },
    {
      "hash": "0xdf2a20cb7b7e0d35828ff67e4f87b94f81bc4fcb15ebb58e2c1c5dfcb214bef8",
      "transactionType": "CALL",
      "contractName": null,
      "contractAddress": "0x1a2f750170474d4c54f8d318d9d4343588b4c4d1",
      "function": "depositToNode(address,uint256)",
      "arguments": [
        "0x3c499c542cEF5E3811e1192ce70d8cC03d5c3359",
        "200000000"
      ],
      "transaction": {
        "from": "0xfadf8382db9468e9f303746edc3b95af83489c2a",
        "to": "0x1a2f750170474d4c54f8d318d9d4343588b4c4d1",
        "gas": "0x1fe16",
        "value": "0x0",
        "input": "0xb65b78d10000000000000000000000003c499c542cef5e3811e1192ce70d8cc03d5c3359000000000000000000000000000000000000000000000000000000000bebc200",
        "nonce": "0xb",
        "chainId": "0x89"
      },
      "additionalContracts": [],
      "isFixedGasLimit": false
    }
  ],
  "receipts": [
    {
      "type": "0x2",
      "status": "0x1",
      "cumulativeGasUsed": "0x1755f68",
      "logs": [
        {
          "address": "0x3c499c542cef5e3811e1192ce70d8cc03d5c3359",
          "topics": [
            "0x8c5be1e5ebec7d5bd14f71427d1e84f3dd0314c0f7b2291e5b200ac8c7c3b925",
            "0x000000000000000000000000fadf8382db9468e9f303746edc3b95af83489c2a",
            "0x0000000000000000000000001a2f750170474d4c54f8d318d9d4343588b4c4d1"
          ],
          "data": "0x000000000000000000000000000000000000000000000000000000000bebc200",
          "blockHash": "0xee523d5e300f93f0de1496d4bb7afc1010e3af69fcfb82a3e7fa276f0e9475be",
          "blockNumber": "0x548ca37",
          "blockTimestamp": "0x6a326d30",
          "transactionHash": "0xc066092debd184d7d4bdca5224210798340e508d97042f6b8de26ac20194614a",
          "transactionIndex": "0x5a",
          "logIndex": "0x357",
          "removed": false
        },
        {
          "address": "0x0000000000000000000000000000000000001010",
          "topics": [
            "0x4dfe1bbbcf077ddc3e01291eea2d5c70c2b422b415d95645b9adcfd678cb1d63",
            "0x0000000000000000000000000000000000000000000000000000000000001010",
            "0x000000000000000000000000fadf8382db9468e9f303746edc3b95af83489c2a",
            "0x0000000000000000000000007ee41d8a25641000661b1ef5e6ae8a00400466b0"
          ],
          "data": "0x0000000000000000000000000000000000000000000000000024ccf701657b80000000000000000000000000000000000000000000000000296d322784ee2b1e000000000000000000000000000000000000000000173b99229edfe7d174807c000000000000000000000000000000000000000000000000294865308388af9e000000000000000000000000000000000000000000173b9922c3acded2d9fbfc",
          "blockHash": "0xee523d5e300f93f0de1496d4bb7afc1010e3af69fcfb82a3e7fa276f0e9475be",
          "blockNumber": "0x548ca37",
          "blockTimestamp": "0x6a326d30",
          "transactionHash": "0xc066092debd184d7d4bdca5224210798340e508d97042f6b8de26ac20194614a",
          "transactionIndex": "0x5a",
          "logIndex": "0x358",
          "removed": false
        }
      ],
      "logsBloom": "0x00000000000000000000000000000000000000000000000000400000000000000000000000000000000000000000000000008000000000000000000002200000000000000000000000000000000000800000000000000000000100000000000000000000000000000000000000000000000000000000000080000000000000000000000000000000020000000400000000000000000000000000000000000080220000000400000000000000000000000800000000000000000000000000004000000000000000000001000000000000000000400000200000100000000000000010000000000040000000000000010000000000100000000000000000100000",
      "transactionHash": "0xc066092debd184d7d4bdca5224210798340e508d97042f6b8de26ac20194614a",
      "transactionIndex": "0x5a",
      "blockHash": "0xee523d5e300f93f0de1496d4bb7afc1010e3af69fcfb82a3e7fa276f0e9475be",
      "blockNumber": "0x548ca37",
      "gasUsed": "0x10335",
      "effectiveGasPrice": "0x5e2c9bd2a7",
      "from": "0xfadf8382db9468e9f303746edc3b95af83489c2a",
      "to": "0x3c499c542cef5e3811e1192ce70d8cc03d5c3359",
      "contractAddress": null
    },
    {
      "type": "0x2",
      "status": "0x1",
      "cumulativeGasUsed": "0x177366c",
      "logs": [
        {
          "address": "0x3c499c542cef5e3811e1192ce70d8cc03d5c3359",
          "topics": [
            "0xddf252ad1be2c89b69c2b068fc378daa952ba7f163c4a11628f55a4df523b3ef",
            "0x000000000000000000000000fadf8382db9468e9f303746edc3b95af83489c2a",
            "0x0000000000000000000000001a2f750170474d4c54f8d318d9d4343588b4c4d1"
          ],
          "data": "0x000000000000000000000000000000000000000000000000000000000bebc200",
          "blockHash": "0xee523d5e300f93f0de1496d4bb7afc1010e3af69fcfb82a3e7fa276f0e9475be",
          "blockNumber": "0x548ca37",
          "blockTimestamp": "0x6a326d30",
          "transactionHash": "0xdf2a20cb7b7e0d35828ff67e4f87b94f81bc4fcb15ebb58e2c1c5dfcb214bef8",
          "transactionIndex": "0x5b",
          "logIndex": "0x359",
          "removed": false
        },
        {
          "address": "0x1a2f750170474d4c54f8d318d9d4343588b4c4d1",
          "topics": [
            "0x2da466a7b24304f47e87fa2e1e5a81b9831ce54fec19055ce277ca2f39ba42c4",
            "0x0000000000000000000000003c499c542cef5e3811e1192ce70d8cc03d5c3359"
          ],
          "data": "0x000000000000000000000000000000000000000000000000000000000bebc200",
          "blockHash": "0xee523d5e300f93f0de1496d4bb7afc1010e3af69fcfb82a3e7fa276f0e9475be",
          "blockNumber": "0x548ca37",
          "blockTimestamp": "0x6a326d30",
          "transactionHash": "0xdf2a20cb7b7e0d35828ff67e4f87b94f81bc4fcb15ebb58e2c1c5dfcb214bef8",
          "transactionIndex": "0x5b",
          "logIndex": "0x35a",
          "removed": false
        },
        {
          "address": "0x1a2f750170474d4c54f8d318d9d4343588b4c4d1",
          "topics": [
            "0x05f47829691a1f710b0620aedd52749bb09d8abe4bb530d306db920a71b0d7ce",
            "0x0000000000000000000000003c499c542cef5e3811e1192ce70d8cc03d5c3359"
          ],
          "data": "0x000000000000000000000000000000000000000000000000000000000bebc200",
          "blockHash": "0xee523d5e300f93f0de1496d4bb7afc1010e3af69fcfb82a3e7fa276f0e9475be",
          "blockNumber": "0x548ca37",
          "blockTimestamp": "0x6a326d30",
          "transactionHash": "0xdf2a20cb7b7e0d35828ff67e4f87b94f81bc4fcb15ebb58e2c1c5dfcb214bef8",
          "transactionIndex": "0x5b",
          "logIndex": "0x35b",
          "removed": false
        },
        {
          "address": "0x0000000000000000000000000000000000001010",
          "topics": [
            "0x4dfe1bbbcf077ddc3e01291eea2d5c70c2b422b415d95645b9adcfd678cb1d63",
            "0x0000000000000000000000000000000000000000000000000000000000001010",
            "0x000000000000000000000000fadf8382db9468e9f303746edc3b95af83489c2a",
            "0x0000000000000000000000007ee41d8a25641000661b1ef5e6ae8a00400466b0"
          ],
          "data": "0x0000000000000000000000000000000000000000000000000042df37c9847600000000000000000000000000000000000000000000000000290dd786a28c998b000000000000000000000000000000000000000000173b9922c3acded2d9fbfc00000000000000000000000000000000000000000000000028caf84ed908238b000000000000000000000000000000000000000000173b9923068c169c5e71fc",
          "blockHash": "0xee523d5e300f93f0de1496d4bb7afc1010e3af69fcfb82a3e7fa276f0e9475be",
          "blockNumber": "0x548ca37",
          "blockTimestamp": "0x6a326d30",
          "transactionHash": "0xdf2a20cb7b7e0d35828ff67e4f87b94f81bc4fcb15ebb58e2c1c5dfcb214bef8",
          "transactionIndex": "0x5b",
          "logIndex": "0x35c",
          "removed": false
        }
      ],
      "logsBloom": "0x00000000000000000000000000000000000000000000000000400000000000000000000000000000000000000000000000008000000000000000000002200000000000000040000000000008000000800000000000000000000140000000200000000000000000000000000000000000000000008000000088000010000200000000000000000000020000800480000000000000000000000000000000000080200000000400000000000000000000000800000000000000000000000000004000000002000000000001000000000000000000420000200000100000000000000040000000000040000000000000010000000000100000000000000000100000",
      "transactionHash": "0xdf2a20cb7b7e0d35828ff67e4f87b94f81bc4fcb15ebb58e2c1c5dfcb214bef8",
      "transactionIndex": "0x5b",
      "blockHash": "0xee523d5e300f93f0de1496d4bb7afc1010e3af69fcfb82a3e7fa276f0e9475be",
      "blockNumber": "0x548ca37",
      "gasUsed": "0x1d704",
      "effectiveGasPrice": "0x5e2c9bd2a7",
      "from": "0xfadf8382db9468e9f303746edc3b95af83489c2a",
      "to": "0x1a2f750170474d4c54f8d318d9d4343588b4c4d1",
      "contractAddress": null
    }
  ],
  "libraries": [],
  "pending": [],
  "returns": {},
  "timestamp": 1781689647409,
  "chain": 137,
  "commit": "f246c8b2"
}