{
  "transactions": [
    {
      "hash": "0x615cf314bb9e3584b085a060dd5e1bac0821ffc15bd2596ab1f44353179eb757",
      "transactionType": "CALL",
      "contractName": null,
      "contractAddress": "0x67a5f0b0553e22689a539b80cbe4a1cd126e2bde",
      "function": "approve(address,uint256)",
      "arguments": [
        "0x5DBa8515af063Db0c243C15eCE7B99F91459C7C3",
        "100000000000000000000000"
      ],
      "transaction": {
        "from": "0xbab179854ba39cfcfb2d1d98a05fcfa113cf4ac1",
        "to": "0x67a5f0b0553e22689a539b80cbe4a1cd126e2bde",
        "gas": "0x10687",
        "value": "0x0",
        "input": "0x095ea7b30000000000000000000000005dba8515af063db0c243c15ece7b99f91459c7c300000000000000000000000000000000000000000000152d02c7e14af6800000",
        "nonce": "0xc",
        "chainId": "0x161c28"
      },
      "additionalContracts": [],
      "isFixedGasLimit": false
    },
    {
      "hash": "0xeaf11487a13b8ae81c802b68450eb40b9f8449787e776b2b25576c0b8eb03827",
      "transactionType": "CALL",
      "contractName": null,
      "contractAddress": "0x5dba8515af063db0c243c15ece7b99f91459c7c3",
      "function": "depositToNode(address,uint256)",
      "arguments": [
        "0x67a5F0B0553E22689A539b80cBE4A1Cd126E2Bde",
        "100000000000000000000000"
      ],
      "transaction": {
        "from": "0xbab179854ba39cfcfb2d1d98a05fcfa113cf4ac1",
        "to": "0x5dba8515af063db0c243c15ece7b99f91459c7c3",
        "gas": "0x1c060",
        "value": "0x0",
        "input": "0xb65b78d100000000000000000000000067a5f0b0553e22689a539b80cbe4a1cd126e2bde00000000000000000000000000000000000000000000152d02c7e14af6800000",
        "nonce": "0xd",
        "chainId": "0x161c28"
      },
      "additionalContracts": [],
      "isFixedGasLimit": false
    }
  ],
  "receipts": [
    {
      "type": "0x2",
      "status": "0x1",
      "cumulativeGasUsed": "0xb382",
      "logs": [
        {
          "address": "0x67a5f0b0553e22689a539b80cbe4a1cd126e2bde",
          "topics": [
            "0x8c5be1e5ebec7d5bd14f71427d1e84f3dd0314c0f7b2291e5b200ac8c7c3b925",
            "0x000000000000000000000000bab179854ba39cfcfb2d1d98a05fcfa113cf4ac1",
            "0x0000000000000000000000005dba8515af063db0c243c15ece7b99f91459c7c3"
          ],
          "data": "0x00000000000000000000000000000000000000000000152d02c7e14af6800000",
          "blockHash": "0x439c89a245e20325b695a663eef6052bf54cacb147818fad33516a800806f8e6",
          "blockNumber": "0x6a2230",
          "blockTimestamp": "0x6a134bc9",
          "transactionHash": "0x615cf314bb9e3584b085a060dd5e1bac0821ffc15bd2596ab1f44353179eb757",
          "transactionIndex": "0x0",
          "logIndex": "0x0",
          "removed": false
        }
      ],
      "logsBloom": "0x00000000000000000000000000000000000000000000000000000000000000000000000000000000088000000000000000000000000000000000000020200000000000000000000000000000400000000000008000000000000000000000000000000000000800000000000000000800000000000000000000000000000000000000000000002000000000000008000000000000000000000000000000000000020000000000000000000000000000000000000000000000000000000000000000000000000000000000000000000000000000000000000000000000000000000010000000000000000000000000000000000000000000000000000000000000",
      "transactionHash": "0x615cf314bb9e3584b085a060dd5e1bac0821ffc15bd2596ab1f44353179eb757",
      "transactionIndex": "0x0",
      "blockHash": "0x439c89a245e20325b695a663eef6052bf54cacb147818fad33516a800806f8e6",
      "blockNumber": "0x6a2230",
      "gasUsed": "0xb382",
      "effectiveGasPrice": "0x2ecc0e88",
      "from": "0xbab179854ba39cfcfb2d1d98a05fcfa113cf4ac1",
      "to": "0x67a5f0b0553e22689a539b80cbe4a1cd126e2bde",
      "contractAddress": null
    },
    {
      "type": "0x2",
      "status": "0x1",
      "cumulativeGasUsed": "0x1449f",
      "logs": [
        {
          "address": "0x67a5f0b0553e22689a539b80cbe4a1cd126e2bde",
          "topics": [
            "0xddf252ad1be2c89b69c2b068fc378daa952ba7f163c4a11628f55a4df523b3ef",
            "0x000000000000000000000000bab179854ba39cfcfb2d1d98a05fcfa113cf4ac1",
            "0x0000000000000000000000005dba8515af063db0c243c15ece7b99f91459c7c3"
          ],
          "data": "0x00000000000000000000000000000000000000000000152d02c7e14af6800000",
          "blockHash": "0x439c89a245e20325b695a663eef6052bf54cacb147818fad33516a800806f8e6",
          "blockNumber": "0x6a2230",
          "blockTimestamp": "0x6a134bc9",
          "transactionHash": "0xeaf11487a13b8ae81c802b68450eb40b9f8449787e776b2b25576c0b8eb03827",
          "transactionIndex": "0x1",
          "logIndex": "0x1",
          "removed": false
        },
        {
          "address": "0x5dba8515af063db0c243c15ece7b99f91459c7c3",
          "topics": [
            "0x2da466a7b24304f47e87fa2e1e5a81b9831ce54fec19055ce277ca2f39ba42c4",
            "0x00000000000000000000000067a5f0b0553e22689a539b80cbe4a1cd126e2bde"
          ],
          "data": "0x00000000000000000000000000000000000000000000152d02c7e14af6800000",
          "blockHash": "0x439c89a245e20325b695a663eef6052bf54cacb147818fad33516a800806f8e6",
          "blockNumber": "0x6a2230",
          "blockTimestamp": "0x6a134bc9",
          "transactionHash": "0xeaf11487a13b8ae81c802b68450eb40b9f8449787e776b2b25576c0b8eb03827",
          "transactionIndex": "0x1",
          "logIndex": "0x2",
          "removed": false
        },
        {
          "address": "0x5dba8515af063db0c243c15ece7b99f91459c7c3",
          "topics": [
            "0x05f47829691a1f710b0620aedd52749bb09d8abe4bb530d306db920a71b0d7ce",
            "0x00000000000000000000000067a5f0b0553e22689a539b80cbe4a1cd126e2bde"
          ],
          "data": "0x00000000000000000000000000000000000000000000152d02c7e14af6800000",
          "blockHash": "0x439c89a245e20325b695a663eef6052bf54cacb147818fad33516a800806f8e6",
          "blockNumber": "0x6a2230",
          "blockTimestamp": "0x6a134bc9",
          "transactionHash": "0xeaf11487a13b8ae81c802b68450eb40b9f8449787e776b2b25576c0b8eb03827",
          "transactionIndex": "0x1",
          "logIndex": "0x3",
          "removed": false
        }
      ],
      "logsBloom": "0x00000000000000000000000000000000000000000000000000000000000000000000000000000000088000000000000000000000000000000000000020000000000000000000000000000808400000000000008000000000000000000000200000000080000800000000000000000800000000008000000000000010000200000000000000002000000000000088000008000000000000000000000000000000000000100000000000000000000000000000000000000000000000000000000000000002000000000000000000000000000000020002000000000000000000000040000000200000000000000000000000000000000000000000000000000000",
      "transactionHash": "0xeaf11487a13b8ae81c802b68450eb40b9f8449787e776b2b25576c0b8eb03827",
      "transactionIndex": "0x1",
      "blockHash": "0x439c89a245e20325b695a663eef6052bf54cacb147818fad33516a800806f8e6",
      "blockNumber": "0x6a2230",
      "gasUsed": "0x1449f",
      "effectiveGasPrice": "0x2ecc0e88",
      "from": "0xbab179854ba39cfcfb2d1d98a05fcfa113cf4ac1",
      "to": "0x5dba8515af063db0c243c15ece7b99f91459c7c3",
      "contractAddress": null
    }
  ],
  "libraries": [],
  "pending": [],
  "returns": {},
  "timestamp": 1779649489951,
  "chain": 1449000,
  "commit": "b88d511c"
}