{
  "transactions": [
    {
      "hash": "0xddba8a024c2a1ae224bbadf296b1c671422deb8e5bb36c9490d0ab308e1d4e50",
      "transactionType": "CALL",
      "contractName": null,
      "contractAddress": "0x833589fcd6edb6e08f4c7c32d4f71b54bda02913",
      "function": "approve(address,uint256)",
      "arguments": [
        "0x1a2f750170474D4c54f8d318D9d4343588b4C4D1",
        "200000000"
      ],
      "transaction": {
        "from": "0xfadf8382db9468e9f303746edc3b95af83489c2a",
        "to": "0x833589fcd6edb6e08f4c7c32d4f71b54bda02913",
        "gas": "0x12b1b",
        "value": "0x0",
        "input": "0x095ea7b30000000000000000000000001a2f750170474d4c54f8d318d9d4343588b4c4d1000000000000000000000000000000000000000000000000000000000bebc200",
        "nonce": "0x19",
        "chainId": "0x2105"
      },
      "additionalContracts": [],
      "isFixedGasLimit": false
    },
    {
      "hash": "0x5775b47ace6d265e6658c7c60ce1e37fa674d8890684629a8e8780bf165961c2",
      "transactionType": "CALL",
      "contractName": null,
      "contractAddress": "0x1a2f750170474d4c54f8d318d9d4343588b4c4d1",
      "function": "depositToNode(address,uint256)",
      "arguments": [
        "0x833589fCD6eDb6E08f4c7C32D4f71b54bdA02913",
        "200000000"
      ],
      "transaction": {
        "from": "0xfadf8382db9468e9f303746edc3b95af83489c2a",
        "to": "0x1a2f750170474d4c54f8d318d9d4343588b4c4d1",
        "gas": "0x1fe16",
        "value": "0x0",
        "input": "0xb65b78d1000000000000000000000000833589fcd6edb6e08f4c7c32d4f71b54bda02913000000000000000000000000000000000000000000000000000000000bebc200",
        "nonce": "0x1a",
        "chainId": "0x2105"
      },
      "additionalContracts": [],
      "isFixedGasLimit": false
    }
  ],
  "receipts": [
    {
      "type": "0x2",
      "status": "0x1",
      "cumulativeGasUsed": "0x1282ef3",
      "logs": [
        {
          "address": "0x833589fcd6edb6e08f4c7c32d4f71b54bda02913",
          "topics": [
            "0x8c5be1e5ebec7d5bd14f71427d1e84f3dd0314c0f7b2291e5b200ac8c7c3b925",
            "0x000000000000000000000000fadf8382db9468e9f303746edc3b95af83489c2a",
            "0x0000000000000000000000001a2f750170474d4c54f8d318d9d4343588b4c4d1"
          ],
          "data": "0x000000000000000000000000000000000000000000000000000000000bebc200",
          "blockHash": "0x02a21ee750fd1cdefed577bb344c7311d1b5e321f43a4f6a892171c3cbfa25b3",
          "blockNumber": "0x2d40827",
          "blockTimestamp": "0x6a326d31",
          "transactionHash": "0x5775b47ace6d265e6658c7c60ce1e37fa674d8890684629a8e8780bf165961c2",
          "transactionIndex": "0x4f",
          "logIndex": "0x202",
          "removed": false
        }
      ],
      "logsBloom": "0x00000000000000000000000000000000000000000000000000400000000000000000000000000000000000000000100000000000000000000000000002200000000000000000000000000000000000000000000000080000000000000000000000800000000000000000000000000000000000000000000000000000000000000000000000000000000000000000000000000000000000000000000000000080020000000400000000000000000000000000000000000000000000000000000000000000000000000000000000000000000000000000200000000000000000000010000000000040000000000000000000000000000000000000000000000000",
      "transactionHash": "0x5775b47ace6d265e6658c7c60ce1e37fa674d8890684629a8e8780bf165961c2",
      "transactionIndex": "0x4f",
      "blockHash": "0x02a21ee750fd1cdefed577bb344c7311d1b5e321f43a4f6a892171c3cbfa25b3",
      "blockNumber": "0x2d40827",
      "gasUsed": "0xd88d",
      "effectiveGasPrice": "0x51a276",
      "blobGasUsed": "0x39d0",
      "from": "0xfadf8382db9468e9f303746edc3b95af83489c2a",
      "to": "0x833589fcd6edb6e08f4c7c32d4f71b54bda02913",
      "contractAddress": null,
      "l1GasPrice": "0x6eabe47",
      "l1GasUsed": "0x640",
      "l1Fee": "0x44c7a92b",
      "l1BaseFeeScalar": "0x8dd",
      "l1BlobBaseFee": "0x69e317",
      "l1BlobBaseFeeScalar": "0x101c12",
      "daFootprintGasScalar": "0x94"
    },
    {
      "type": "0x2",
      "status": "0x1",
      "cumulativeGasUsed": "0x129a03f",
      "logs": [
        {
          "address": "0x833589fcd6edb6e08f4c7c32d4f71b54bda02913",
          "topics": [
            "0xddf252ad1be2c89b69c2b068fc378daa952ba7f163c4a11628f55a4df523b3ef",
            "0x000000000000000000000000fadf8382db9468e9f303746edc3b95af83489c2a",
            "0x0000000000000000000000001a2f750170474d4c54f8d318d9d4343588b4c4d1"
          ],
          "data": "0x000000000000000000000000000000000000000000000000000000000bebc200",
          "blockHash": "0x0000000000000000000000000000000000000000000000000000000000000000",
          "blockNumber": "0x2d40827",
          "blockTimestamp": "0x6a326d31",
          "transactionHash": "0xddba8a024c2a1ae224bbadf296b1c671422deb8e5bb36c9490d0ab308e1d4e50",
          "transactionIndex": "0x50",
          "logIndex": "0x203",
          "removed": false
        },
        {
          "address": "0x1a2f750170474d4c54f8d318d9d4343588b4c4d1",
          "topics": [
            "0x2da466a7b24304f47e87fa2e1e5a81b9831ce54fec19055ce277ca2f39ba42c4",
            "0x000000000000000000000000833589fcd6edb6e08f4c7c32d4f71b54bda02913"
          ],
          "data": "0x000000000000000000000000000000000000000000000000000000000bebc200",
          "blockHash": "0x0000000000000000000000000000000000000000000000000000000000000000",
          "blockNumber": "0x2d40827",
          "blockTimestamp": "0x6a326d31",
          "transactionHash": "0xddba8a024c2a1ae224bbadf296b1c671422deb8e5bb36c9490d0ab308e1d4e50",
          "transactionIndex": "0x50",
          "logIndex": "0x204",
          "removed": false
        },
        {
          "address": "0x1a2f750170474d4c54f8d318d9d4343588b4c4d1",
          "topics": [
            "0x05f47829691a1f710b0620aedd52749bb09d8abe4bb530d306db920a71b0d7ce",
            "0x000000000000000000000000833589fcd6edb6e08f4c7c32d4f71b54bda02913"
          ],
          "data": "0x000000000000000000000000000000000000000000000000000000000bebc200",
          "blockHash": "0x0000000000000000000000000000000000000000000000000000000000000000",
          "blockNumber": "0x2d40827",
          "blockTimestamp": "0x6a326d31",
          "transactionHash": "0xddba8a024c2a1ae224bbadf296b1c671422deb8e5bb36c9490d0ab308e1d4e50",
          "transactionIndex": "0x50",
          "logIndex": "0x205",
          "removed": false
        }
      ],
      "logsBloom": "0x00000000000000000000000000000000000000000000000000400000000000000000000000000000000000000000100000000000000000000000000002200000000000000000040000000008000000000000000000080000000040000000200000800000000000000000000000000000010000008000000008000010000200000000000000000000400000000080000000000000000000000000000000000080000000000400000000000000000000000000000000000000000000000000000000000002000000000000000000000000000000020000200000000000000000000040000000000040000000000000000000000000000000000000000000000000",
      "transactionHash": "0xddba8a024c2a1ae224bbadf296b1c671422deb8e5bb36c9490d0ab308e1d4e50",
      "transactionIndex": "0x50",
      "blockHash": "0x0000000000000000000000000000000000000000000000000000000000000000",
      "blockNumber": "0x2d40827",
      "gasUsed": "0x1714c",
      "effectiveGasPrice": "0x51a276",
      "blobGasUsed": "0x39d0",
      "from": "0xfadf8382db9468e9f303746edc3b95af83489c2a",
      "to": "0x1a2f750170474d4c54f8d318d9d4343588b4c4d1",
      "contractAddress": null,
      "l1GasPrice": "0x6eabe47",
      "l1GasUsed": "0x640",
      "l1Fee": "0x44c7a92b",
      "l1BaseFeeScalar": "0x8dd",
      "l1BlobBaseFee": "0x69e317",
      "l1BlobBaseFeeScalar": "0x101c12",
      "daFootprintGasScalar": "0x94"
    }
  ],
  "libraries": [],
  "pending": [],
  "returns": {},
  "timestamp": 1781689649262,
  "chain": 8453,
  "commit": "f246c8b2"
}