{
  "transactions": [
    {
      "hash": "0xab62eba6329b5a6f89e86a0cd9c580cf478e3205553518f17f91994060355c37",
      "transactionType": "CALL",
      "contractName": null,
      "contractAddress": "0x176211869ca2b568f2a7d4ee941e073a821ee1ff",
      "function": "approve(address,uint256)",
      "arguments": [
        "0x1a2f750170474D4c54f8d318D9d4343588b4C4D1",
        "100000000"
      ],
      "transaction": {
        "from": "0xfadf8382db9468e9f303746edc3b95af83489c2a",
        "to": "0x176211869ca2b568f2a7d4ee941e073a821ee1ff",
        "gas": "0x155de",
        "value": "0x0",
        "input": "0x095ea7b30000000000000000000000001a2f750170474d4c54f8d318d9d4343588b4c4d10000000000000000000000000000000000000000000000000000000005f5e100",
        "nonce": "0xa",
        "chainId": "0xe708"
      },
      "additionalContracts": [],
      "isFixedGasLimit": false
    },
    {
      "hash": "0xdfff45573a2834dda40610e5258e9ae099de7293b638f32a58491e6ee89296fa",
      "transactionType": "CALL",
      "contractName": null,
      "contractAddress": "0x1a2f750170474d4c54f8d318d9d4343588b4c4d1",
      "function": "depositToNode(address,uint256)",
      "arguments": [
        "0x176211869cA2b568f2A7D4EE941E073a821EE1ff",
        "100000000"
      ],
      "transaction": {
        "from": "0xfadf8382db9468e9f303746edc3b95af83489c2a",
        "to": "0x1a2f750170474d4c54f8d318d9d4343588b4c4d1",
        "gas": "0x210a9",
        "value": "0x0",
        "input": "0xb65b78d1000000000000000000000000176211869ca2b568f2a7d4ee941e073a821ee1ff0000000000000000000000000000000000000000000000000000000005f5e100",
        "nonce": "0xb",
        "chainId": "0xe708"
      },
      "additionalContracts": [],
      "isFixedGasLimit": false
    }
  ],
  "receipts": [
    {
      "type": "0x2",
      "status": "0x1",
      "cumulativeGasUsed": "0xe9c2",
      "logs": [
        {
          "address": "0x176211869ca2b568f2a7d4ee941e073a821ee1ff",
          "topics": [
            "0x8c5be1e5ebec7d5bd14f71427d1e84f3dd0314c0f7b2291e5b200ac8c7c3b925",
            "0x000000000000000000000000fadf8382db9468e9f303746edc3b95af83489c2a",
            "0x0000000000000000000000001a2f750170474d4c54f8d318d9d4343588b4c4d1"
          ],
          "data": "0x0000000000000000000000000000000000000000000000000000000005f5e100",
          "blockHash": "0x03111a16f79196ed28c12747dcb57e211f3fee1efdfbe834d0f013591bae92a6",
          "blockNumber": "0x1da009a",
          "blockTimestamp": "0x6a326d2d",
          "transactionHash": "0xdfff45573a2834dda40610e5258e9ae099de7293b638f32a58491e6ee89296fa",
          "transactionIndex": "0x0",
          "logIndex": "0x0",
          "removed": false
        }
      ],
      "logsBloom": "0x00000000000000000000000000000000000000000000000000400000000000000000000000000000000000000000000000000800000000000004000002200000000000000000000000000000020000000000000000000000000000000000000000000000000000000000000000000000000000000000000000000000000000000000000000000000000000000000000000000000000000000000000000000080020000000400000000000000000000000000000000000000000000000000000000000000000000000000000000000000000000000000200000000000000000000010000000000040000000000000000000000000000000000000000000000000",
      "transactionHash": "0xdfff45573a2834dda40610e5258e9ae099de7293b638f32a58491e6ee89296fa",
      "transactionIndex": "0x0",
      "blockHash": "0x03111a16f79196ed28c12747dcb57e211f3fee1efdfbe834d0f013591bae92a6",
      "blockNumber": "0x1da009a",
      "gasUsed": "0xe9c2",
      "effectiveGasPrice": "0x2faf087",
      "from": "0xfadf8382db9468e9f303746edc3b95af83489c2a",
      "to": "0x176211869ca2b568f2a7d4ee941e073a821ee1ff",
      "contractAddress": null
    },
    {
      "type": "0x2",
      "status": "0x1",
      "cumulativeGasUsed": "0x26881",
      "logs": [
        {
          "address": "0x176211869ca2b568f2a7d4ee941e073a821ee1ff",
          "topics": [
            "0xddf252ad1be2c89b69c2b068fc378daa952ba7f163c4a11628f55a4df523b3ef",
            "0x000000000000000000000000fadf8382db9468e9f303746edc3b95af83489c2a",
            "0x0000000000000000000000001a2f750170474d4c54f8d318d9d4343588b4c4d1"
          ],
          "data": "0x0000000000000000000000000000000000000000000000000000000005f5e100",
          "blockHash": "0x03111a16f79196ed28c12747dcb57e211f3fee1efdfbe834d0f013591bae92a6",
          "blockNumber": "0x1da009a",
          "blockTimestamp": "0x6a326d2d",
          "transactionHash": "0xab62eba6329b5a6f89e86a0cd9c580cf478e3205553518f17f91994060355c37",
          "transactionIndex": "0x1",
          "logIndex": "0x1",
          "removed": false
        },
        {
          "address": "0x1a2f750170474d4c54f8d318d9d4343588b4c4d1",
          "topics": [
            "0x2da466a7b24304f47e87fa2e1e5a81b9831ce54fec19055ce277ca2f39ba42c4",
            "0x000000000000000000000000176211869ca2b568f2a7d4ee941e073a821ee1ff"
          ],
          "data": "0x0000000000000000000000000000000000000000000000000000000005f5e100",
          "blockHash": "0x03111a16f79196ed28c12747dcb57e211f3fee1efdfbe834d0f013591bae92a6",
          "blockNumber": "0x1da009a",
          "blockTimestamp": "0x6a326d2d",
          "transactionHash": "0xab62eba6329b5a6f89e86a0cd9c580cf478e3205553518f17f91994060355c37",
          "transactionIndex": "0x1",
          "logIndex": "0x2",
          "removed": false
        },
        {
          "address": "0x1a2f750170474d4c54f8d318d9d4343588b4c4d1",
          "topics": [
            "0x05f47829691a1f710b0620aedd52749bb09d8abe4bb530d306db920a71b0d7ce",
            "0x000000000000000000000000176211869ca2b568f2a7d4ee941e073a821ee1ff"
          ],
          "data": "0x0000000000000000000000000000000000000000000000000000000005f5e100",
          "blockHash": "0x03111a16f79196ed28c12747dcb57e211f3fee1efdfbe834d0f013591bae92a6",
          "blockNumber": "0x1da009a",
          "blockTimestamp": "0x6a326d2d",
          "transactionHash": "0xab62eba6329b5a6f89e86a0cd9c580cf478e3205553518f17f91994060355c37",
          "transactionIndex": "0x1",
          "logIndex": "0x3",
          "removed": false
        }
      ],
      "logsBloom": "0x00000000000000000000000000000000000000000000000000400000000000000000000000000000000000000000000000000800000000000004000002200000000000000000000000080008020000000000000000000000000040000000200000000000000000000000000000000000800000008000000008000010000200000000000000000000000000000080000000000000000000000000000000000080000000000400000000000000000000000000000000000000000000000000000000000002000000000000000000000000000200020000200000000000000000000040000000000040000000000000000000000000000000000000000000000000",
      "transactionHash": "0xab62eba6329b5a6f89e86a0cd9c580cf478e3205553518f17f91994060355c37",
      "transactionIndex": "0x1",
      "blockHash": "0x03111a16f79196ed28c12747dcb57e211f3fee1efdfbe834d0f013591bae92a6",
      "blockNumber": "0x1da009a",
      "gasUsed": "0x17ebf",
      "effectiveGasPrice": "0x2faf087",
      "from": "0xfadf8382db9468e9f303746edc3b95af83489c2a",
      "to": "0x1a2f750170474d4c54f8d318d9d4343588b4c4d1",
      "contractAddress": null
    }
  ],
  "libraries": [],
  "pending": [],
  "returns": {},
  "timestamp": 1781689648201,
  "chain": 59144,
  "commit": "f246c8b2"
}