{
  "transactions": [
    {
      "hash": "0x7223276d2f73cb0b6f2fcd5a72b0deead4840815af61aff7598b050e127bfe1c",
      "transactionType": "CALL",
      "contractName": null,
      "contractAddress": "0xa0b86991c6218b36c1d19d4a2e9eb0ce3606eb48",
      "function": "approve(address,uint256)",
      "arguments": [
        "0x1a2f750170474D4c54f8d318D9d4343588b4C4D1",
        "100000000"
      ],
      "transaction": {
        "from": "0xfadf8382db9468e9f303746edc3b95af83489c2a",
        "to": "0xa0b86991c6218b36c1d19d4a2e9eb0ce3606eb48",
        "gas": "0x12bc3",
        "value": "0x0",
        "input": "0x095ea7b30000000000000000000000001a2f750170474d4c54f8d318d9d4343588b4c4d10000000000000000000000000000000000000000000000000000000005f5e100",
        "nonce": "0x25",
        "chainId": "0x1"
      },
      "additionalContracts": [],
      "isFixedGasLimit": false
    },
    {
      "hash": "0xe89f2ba6e2505adde5bdd00c60211b6e0b7ff8400fefe6dde2b78702b82d5c9f",
      "transactionType": "CALL",
      "contractName": null,
      "contractAddress": "0x1a2f750170474d4c54f8d318d9d4343588b4c4d1",
      "function": "depositToNode(address,uint256)",
      "arguments": [
        "0xA0b86991c6218b36c1d19D4a2e9Eb0cE3606eB48",
        "100000000"
      ],
      "transaction": {
        "from": "0xfadf8382db9468e9f303746edc3b95af83489c2a",
        "to": "0x1a2f750170474d4c54f8d318d9d4343588b4c4d1",
        "gas": "0x1febe",
        "value": "0x0",
        "input": "0xb65b78d1000000000000000000000000a0b86991c6218b36c1d19d4a2e9eb0ce3606eb480000000000000000000000000000000000000000000000000000000005f5e100",
        "nonce": "0x26",
        "chainId": "0x1"
      },
      "additionalContracts": [],
      "isFixedGasLimit": false
    }
  ],
  "receipts": [
    {
      "type": "0x2",
      "status": "0x1",
      "cumulativeGasUsed": "0x15d9769",
      "logs": [
        {
          "address": "0xa0b86991c6218b36c1d19d4a2e9eb0ce3606eb48",
          "topics": [
            "0x8c5be1e5ebec7d5bd14f71427d1e84f3dd0314c0f7b2291e5b200ac8c7c3b925",
            "0x000000000000000000000000fadf8382db9468e9f303746edc3b95af83489c2a",
            "0x0000000000000000000000001a2f750170474d4c54f8d318d9d4343588b4c4d1"
          ],
          "data": "0x0000000000000000000000000000000000000000000000000000000005f5e100",
          "blockHash": "0x6d49ab2c650b750f176b9142e22108f4b3aefc164edbdd11cc4f56ac488e410b",
          "blockNumber": "0x1829a94",
          "blockTimestamp": "0x6a326d37",
          "transactionHash": "0xe89f2ba6e2505adde5bdd00c60211b6e0b7ff8400fefe6dde2b78702b82d5c9f",
          "transactionIndex": "0xb7",
          "logIndex": "0x453",
          "removed": false
        }
      ],
      "logsBloom": "0x00000000000000000000000000000000000000000000000000400000000000000000000000000000000000000000000000000000000000000000000002200000000000000000000008000000000000000000000000000000000000000000000000000000000000000000000000000000000000000000000000000000000000000000000000000000000000000000000000000000010000000000000000000080020000000400200000000000000000000000000000000000000000000000000000000000000000000000000000000000000000000000200000000000000000000010000000000040000000000000000000000000000000000000000000000000",
      "transactionHash": "0xe89f2ba6e2505adde5bdd00c60211b6e0b7ff8400fefe6dde2b78702b82d5c9f",
      "transactionIndex": "0xb7",
      "blockHash": "0x6d49ab2c650b750f176b9142e22108f4b3aefc164edbdd11cc4f56ac488e410b",
      "blockNumber": "0x1829a94",
      "gasUsed": "0xd906",
      "effectiveGasPrice": "0x70c2f8b",
      "from": "0xfadf8382db9468e9f303746edc3b95af83489c2a",
      "to": "0xa0b86991c6218b36c1d19d4a2e9eb0ce3606eb48",
      "contractAddress": null
    },
    {
      "type": "0x2",
      "status": "0x1",
      "cumulativeGasUsed": "0x1a564e6",
      "logs": [
        {
          "address": "0xa0b86991c6218b36c1d19d4a2e9eb0ce3606eb48",
          "topics": [
            "0xddf252ad1be2c89b69c2b068fc378daa952ba7f163c4a11628f55a4df523b3ef",
            "0x000000000000000000000000fadf8382db9468e9f303746edc3b95af83489c2a",
            "0x0000000000000000000000001a2f750170474d4c54f8d318d9d4343588b4c4d1"
          ],
          "data": "0x0000000000000000000000000000000000000000000000000000000005f5e100",
          "blockHash": "0xb03b19f03953ee66e0cd2bd7a81158453745cfe214d88fb7840472b6186d080f",
          "blockNumber": "0x1829a95",
          "blockTimestamp": "0x6a326d43",
          "transactionHash": "0x7223276d2f73cb0b6f2fcd5a72b0deead4840815af61aff7598b050e127bfe1c",
          "transactionIndex": "0xdb",
          "logIndex": "0x3df",
          "removed": false
        },
        {
          "address": "0x1a2f750170474d4c54f8d318d9d4343588b4c4d1",
          "topics": [
            "0x2da466a7b24304f47e87fa2e1e5a81b9831ce54fec19055ce277ca2f39ba42c4",
            "0x000000000000000000000000a0b86991c6218b36c1d19d4a2e9eb0ce3606eb48"
          ],
          "data": "0x0000000000000000000000000000000000000000000000000000000005f5e100",
          "blockHash": "0xb03b19f03953ee66e0cd2bd7a81158453745cfe214d88fb7840472b6186d080f",
          "blockNumber": "0x1829a95",
          "blockTimestamp": "0x6a326d43",
          "transactionHash": "0x7223276d2f73cb0b6f2fcd5a72b0deead4840815af61aff7598b050e127bfe1c",
          "transactionIndex": "0xdb",
          "logIndex": "0x3e0",
          "removed": false
        },
        {
          "address": "0x1a2f750170474d4c54f8d318d9d4343588b4c4d1",
          "topics": [
            "0x05f47829691a1f710b0620aedd52749bb09d8abe4bb530d306db920a71b0d7ce",
            "0x000000000000000000000000a0b86991c6218b36c1d19d4a2e9eb0ce3606eb48"
          ],
          "data": "0x0000000000000000000000000000000000000000000000000000000005f5e100",
          "blockHash": "0xb03b19f03953ee66e0cd2bd7a81158453745cfe214d88fb7840472b6186d080f",
          "blockNumber": "0x1829a95",
          "blockTimestamp": "0x6a326d43",
          "transactionHash": "0x7223276d2f73cb0b6f2fcd5a72b0deead4840815af61aff7598b050e127bfe1c",
          "transactionIndex": "0xdb",
          "logIndex": "0x3e1",
          "removed": false
        }
      ],
      "logsBloom": "0x00000000000000000000000000000000000000000000000000400000000000000000000000000000000002000000000000000000000000000000000002200000000000000000000008000008000000000000000000000000000040000000200000000000000000000000000000000000000000008000000008000010000200000000000000000000000000000080000200000000010000000000000000000080000000000400200000000000000000000000000000000000000000000000000000000002000000000000000000000000000000020000200000000000000000000040000000000040000000000000000004000000000000000000000000000000",
      "transactionHash": "0x7223276d2f73cb0b6f2fcd5a72b0deead4840815af61aff7598b050e127bfe1c",
      "transactionIndex": "0xdb",
      "blockHash": "0xb03b19f03953ee66e0cd2bd7a81158453745cfe214d88fb7840472b6186d080f",
      "blockNumber": "0x1829a95",
      "gasUsed": "0x171c5",
      "effectiveGasPrice": "0x6f85583",
      "from": "0xfadf8382db9468e9f303746edc3b95af83489c2a",
      "to": "0x1a2f750170474d4c54f8d318d9d4343588b4c4d1",
      "contractAddress": null
    }
  ],
  "libraries": [],
  "pending": [],
  "returns": {},
  "timestamp": 1781689669039,
  "chain": 1,
  "commit": "f246c8b2"
}