{
  "transactions": [
    {
      "hash": "0xc6b529fe601bb8e93f5e197ded058c134b7aea50477fd64490f73d76aea2d60c",
      "transactionType": "CALL",
      "contractName": null,
      "contractAddress": "0x236eb848c95b231299b4aa9f56c73d6893462720",
      "function": "approve(address,uint256)",
      "arguments": [
        "0x5DBa8515af063Db0c243C15eCE7B99F91459C7C3",
        "100000000000000000000000"
      ],
      "transaction": {
        "from": "0xbab179854ba39cfcfb2d1d98a05fcfa113cf4ac1",
        "to": "0x236eb848c95b231299b4aa9f56c73d6893462720",
        "gas": "0xf821",
        "value": "0x0",
        "input": "0x095ea7b30000000000000000000000005dba8515af063db0c243c15ece7b99f91459c7c300000000000000000000000000000000000000000000152d02c7e14af6800000",
        "nonce": "0xe",
        "chainId": "0xaa36a7"
      },
      "additionalContracts": [],
      "isFixedGasLimit": false
    },
    {
      "hash": "0x1f5941cef717e50212ffac06262205f4061449444523a0179332261d9c740e92",
      "transactionType": "CALL",
      "contractName": null,
      "contractAddress": "0x5dba8515af063db0c243c15ece7b99f91459c7c3",
      "function": "depositToNode(address,uint256)",
      "arguments": [
        "0x236eB848C95b231299B4AA9f56c73D6893462720",
        "100000000000000000000000"
      ],
      "transaction": {
        "from": "0xbab179854ba39cfcfb2d1d98a05fcfa113cf4ac1",
        "to": "0x5dba8515af063db0c243c15ece7b99f91459c7c3",
        "gas": "0x1a69a",
        "value": "0x0",
        "input": "0xb65b78d1000000000000000000000000236eb848c95b231299b4aa9f56c73d689346272000000000000000000000000000000000000000000000152d02c7e14af6800000",
        "nonce": "0xf",
        "chainId": "0xaa36a7"
      },
      "additionalContracts": [],
      "isFixedGasLimit": false
    }
  ],
  "receipts": [
    {
      "type": "0x2",
      "status": "0x1",
      "cumulativeGasUsed": "0xb171f3",
      "logs": [
        {
          "address": "0x236eb848c95b231299b4aa9f56c73d6893462720",
          "topics": [
            "0x8c5be1e5ebec7d5bd14f71427d1e84f3dd0314c0f7b2291e5b200ac8c7c3b925",
            "0x000000000000000000000000bab179854ba39cfcfb2d1d98a05fcfa113cf4ac1",
            "0x0000000000000000000000005dba8515af063db0c243c15ece7b99f91459c7c3"
          ],
          "data": "0x00000000000000000000000000000000000000000000152d02c7e14af6800000",
          "blockHash": "0x3b0c17320802b364ff8c9f8c30af1557e44e44c70f3c79d9cbea5be25cd45e87",
          "blockNumber": "0xa68824",
          "blockTimestamp": "0x6a134be8",
          "transactionHash": "0xc6b529fe601bb8e93f5e197ded058c134b7aea50477fd64490f73d76aea2d60c",
          "transactionIndex": "0x62",
          "logIndex": "0xee",
          "removed": false
        }
      ],
      "logsBloom": "0x00000000000000000000000000000000000000000000000000000000000000000000000000000000088000000000000000000000000000000000000020200000000000000000000000000000400000000000000000000000000000000000000000000000000400000000000000000800000000000000000000000000000000000000000000000000000000000008000000000000000000000000000000000000020000000000000000000000000000000000000000000000000000000000000000000000000000000000000000000000000000000000000000008000000000000010000000000000400000000000000000000000000000000000000000000000",
      "transactionHash": "0xc6b529fe601bb8e93f5e197ded058c134b7aea50477fd64490f73d76aea2d60c",
      "transactionIndex": "0x62",
      "blockHash": "0x3b0c17320802b364ff8c9f8c30af1557e44e44c70f3c79d9cbea5be25cd45e87",
      "blockNumber": "0xa68824",
      "gasUsed": "0xb3a5",
      "effectiveGasPrice": "0x40609c54",
      "from": "0xbab179854ba39cfcfb2d1d98a05fcfa113cf4ac1",
      "to": "0x236eb848c95b231299b4aa9f56c73d6893462720",
      "contractAddress": null
    },
    {
      "type": "0x2",
      "status": "0x1",
      "cumulativeGasUsed": "0xb2a3e8",
      "logs": [
        {
          "address": "0x236eb848c95b231299b4aa9f56c73d6893462720",
          "topics": [
            "0xddf252ad1be2c89b69c2b068fc378daa952ba7f163c4a11628f55a4df523b3ef",
            "0x000000000000000000000000bab179854ba39cfcfb2d1d98a05fcfa113cf4ac1",
            "0x0000000000000000000000005dba8515af063db0c243c15ece7b99f91459c7c3"
          ],
          "data": "0x00000000000000000000000000000000000000000000152d02c7e14af6800000",
          "blockHash": "0x3b0c17320802b364ff8c9f8c30af1557e44e44c70f3c79d9cbea5be25cd45e87",
          "blockNumber": "0xa68824",
          "blockTimestamp": "0x6a134be8",
          "transactionHash": "0x1f5941cef717e50212ffac06262205f4061449444523a0179332261d9c740e92",
          "transactionIndex": "0x63",
          "logIndex": "0xef",
          "removed": false
        },
        {
          "address": "0x5dba8515af063db0c243c15ece7b99f91459c7c3",
          "topics": [
            "0x2da466a7b24304f47e87fa2e1e5a81b9831ce54fec19055ce277ca2f39ba42c4",
            "0x000000000000000000000000236eb848c95b231299b4aa9f56c73d6893462720"
          ],
          "data": "0x00000000000000000000000000000000000000000000152d02c7e14af6800000",
          "blockHash": "0x3b0c17320802b364ff8c9f8c30af1557e44e44c70f3c79d9cbea5be25cd45e87",
          "blockNumber": "0xa68824",
          "blockTimestamp": "0x6a134be8",
          "transactionHash": "0x1f5941cef717e50212ffac06262205f4061449444523a0179332261d9c740e92",
          "transactionIndex": "0x63",
          "logIndex": "0xf0",
          "removed": false
        },
        {
          "address": "0x5dba8515af063db0c243c15ece7b99f91459c7c3",
          "topics": [
            "0x05f47829691a1f710b0620aedd52749bb09d8abe4bb530d306db920a71b0d7ce",
            "0x000000000000000000000000236eb848c95b231299b4aa9f56c73d6893462720"
          ],
          "data": "0x00000000000000000000000000000000000000000000152d02c7e14af6800000",
          "blockHash": "0x3b0c17320802b364ff8c9f8c30af1557e44e44c70f3c79d9cbea5be25cd45e87",
          "blockNumber": "0xa68824",
          "blockTimestamp": "0x6a134be8",
          "transactionHash": "0x1f5941cef717e50212ffac06262205f4061449444523a0179332261d9c740e92",
          "transactionIndex": "0x63",
          "logIndex": "0xf1",
          "removed": false
        }
      ],
      "logsBloom": "0x00000000000000000000000000000000000000000000000000000000000000000000000000000000088000000000000000000000000000000000000020000000000000000000000000000008400000000000000000000000000000000000200000000000000400000000000000000800000000008000000000000010000200000000000000000000000000002088000008000000000000020000000000000000000000100080000000000000000000000000000000000000000000000000000000000002000000000000000000000000000000020002000000008000000000000040000000000000400000000000000000000000000000000000000000000000",
      "transactionHash": "0x1f5941cef717e50212ffac06262205f4061449444523a0179332261d9c740e92",
      "transactionIndex": "0x63",
      "blockHash": "0x3b0c17320802b364ff8c9f8c30af1557e44e44c70f3c79d9cbea5be25cd45e87",
      "blockNumber": "0xa68824",
      "gasUsed": "0x131f5",
      "effectiveGasPrice": "0x40609c54",
      "from": "0xbab179854ba39cfcfb2d1d98a05fcfa113cf4ac1",
      "to": "0x5dba8515af063db0c243c15ece7b99f91459c7c3",
      "contractAddress": null
    }
  ],
  "libraries": [],
  "pending": [],
  "returns": {},
  "timestamp": 1779649512526,
  "chain": 11155111,
  "commit": "b88d511c"
}