{
  "transactions": [
    {
      "hash": "0x7bca7db564e2c166e682270e69fb919024969913cca7603e887c68cbfecff359",
      "transactionType": "CALL",
      "contractName": null,
      "contractAddress": "0x5dba8515af063db0c243c15ece7b99f91459c7c3",
      "function": "depositToNode(address,uint256)",
      "arguments": [
        "0x0000000000000000000000000000000000000000",
        "30000000000000000"
      ],
      "transaction": {
        "from": "0xbab179854ba39cfcfb2d1d98a05fcfa113cf4ac1",
        "to": "0x5dba8515af063db0c243c15ece7b99f91459c7c3",
        "gas": "0x10d6e",
        "value": "0x6a94d74f430000",
        "input": "0xb65b78d10000000000000000000000000000000000000000000000000000000000000000000000000000000000000000000000000000000000000000006a94d74f430000",
        "nonce": "0xd",
        "chainId": "0xaa36a7"
      },
      "additionalContracts": [],
      "isFixedGasLimit": false
    }
  ],
  "receipts": [
    {
      "type": "0x2",
      "status": "0x1",
      "cumulativeGasUsed": "0xaae7cb",
      "logs": [
        {
          "address": "0x5dba8515af063db0c243c15ece7b99f91459c7c3",
          "topics": [
            "0x2da466a7b24304f47e87fa2e1e5a81b9831ce54fec19055ce277ca2f39ba42c4",
            "0x0000000000000000000000000000000000000000000000000000000000000000"
          ],
          "data": "0x000000000000000000000000000000000000000000000000006a94d74f430000",
          "blockHash": "0xb7421f3a24a04ea8874eb6eae30fdab26aca51c14f5798aa5ea0dbb036de7fed",
          "blockNumber": "0xa68821",
          "blockTimestamp": "0x6a134bc4",
          "transactionHash": "0x7bca7db564e2c166e682270e69fb919024969913cca7603e887c68cbfecff359",
          "transactionIndex": "0x5c",
          "logIndex": "0xff",
          "removed": false
        },
        {
          "address": "0x5dba8515af063db0c243c15ece7b99f91459c7c3",
          "topics": [
            "0x05f47829691a1f710b0620aedd52749bb09d8abe4bb530d306db920a71b0d7ce",
            "0x0000000000000000000000000000000000000000000000000000000000000000"
          ],
          "data": "0x000000000000000000000000000000000000000000000000006a94d74f430000",
          "blockHash": "0xb7421f3a24a04ea8874eb6eae30fdab26aca51c14f5798aa5ea0dbb036de7fed",
          "blockNumber": "0xa68821",
          "blockTimestamp": "0x6a134bc4",
          "transactionHash": "0x7bca7db564e2c166e682270e69fb919024969913cca7603e887c68cbfecff359",
          "transactionIndex": "0x5c",
          "logIndex": "0x100",
          "removed": false
        }
      ],
      "logsBloom": "0x00000000000000000000000000000000000000000000000000000000000000000000000000000000000000000000000000000000000000000000000000000000000000000000000000000000000000000000000000000000000000000000200000000000020000000000000000000800000000008000000000000000000200000000000000000000000000000080000008000000000000000000000000000000000000100000000000000000000000000000000000000000000000000000000000000000000000000000000000000000000000020002000000000000000020000040000000000000000000000000000000000000000000000000000000000000",
      "transactionHash": "0x7bca7db564e2c166e682270e69fb919024969913cca7603e887c68cbfecff359",
      "transactionIndex": "0x5c",
      "blockHash": "0xb7421f3a24a04ea8874eb6eae30fdab26aca51c14f5798aa5ea0dbb036de7fed",
      "blockNumber": "0xa68821",
      "gasUsed": "0xc310",
      "effectiveGasPrice": "0x455abfad",
      "from": "0xbab179854ba39cfcfb2d1d98a05fcfa113cf4ac1",
      "to": "0x5dba8515af063db0c243c15ece7b99f91459c7c3",
      "contractAddress": null
    }
  ],
  "libraries": [],
  "pending": [],
  "returns": {},
  "timestamp": 1779649477059,
  "chain": 11155111,
  "commit": "b88d511c"
}