{
  "transactions": [
    {
      "hash": "0xbba5b61f5466c8b592c8384dc7769702e8d2ba13cceb6de2b1ce50c5c8a60d15",
      "transactionType": "CALL",
      "contractName": null,
      "contractAddress": "0x67a5f0b0553e22689a539b80cbe4a1cd126e2bde",
      "function": "approve(address,uint256)",
      "arguments": [
        "0x5DBa8515af063Db0c243C15eCE7B99F91459C7C3",
        "100000000000"
      ],
      "transaction": {
        "from": "0xbab179854ba39cfcfb2d1d98a05fcfa113cf4ac1",
        "to": "0x67a5f0b0553e22689a539b80cbe4a1cd126e2bde",
        "gas": "0x10641",
        "value": "0x0",
        "input": "0x095ea7b30000000000000000000000005dba8515af063db0c243c15ece7b99f91459c7c3000000000000000000000000000000000000000000000000000000174876e800",
        "nonce": "0x10",
        "chainId": "0xaa36a7"
      },
      "additionalContracts": [],
      "isFixedGasLimit": false
    },
    {
      "hash": "0x6f2f513c17f62cccfe8d4fa1194be653c47445be264dbb40433d665d853ae8ed",
      "transactionType": "CALL",
      "contractName": null,
      "contractAddress": "0x5dba8515af063db0c243c15ece7b99f91459c7c3",
      "function": "depositToNode(address,uint256)",
      "arguments": [
        "0x67a5F0B0553E22689A539b80cBE4A1Cd126E2Bde",
        "100000000000"
      ],
      "transaction": {
        "from": "0xbab179854ba39cfcfb2d1d98a05fcfa113cf4ac1",
        "to": "0x5dba8515af063db0c243c15ece7b99f91459c7c3",
        "gas": "0x1c01e",
        "value": "0x0",
        "input": "0xb65b78d100000000000000000000000067a5f0b0553e22689a539b80cbe4a1cd126e2bde000000000000000000000000000000000000000000000000000000174876e800",
        "nonce": "0x11",
        "chainId": "0xaa36a7"
      },
      "additionalContracts": [],
      "isFixedGasLimit": false
    }
  ],
  "receipts": [
    {
      "type": "0x2",
      "status": "0x1",
      "cumulativeGasUsed": "0x1064bc1",
      "logs": [
        {
          "address": "0x67a5f0b0553e22689a539b80cbe4a1cd126e2bde",
          "topics": [
            "0x8c5be1e5ebec7d5bd14f71427d1e84f3dd0314c0f7b2291e5b200ac8c7c3b925",
            "0x000000000000000000000000bab179854ba39cfcfb2d1d98a05fcfa113cf4ac1",
            "0x0000000000000000000000005dba8515af063db0c243c15ece7b99f91459c7c3"
          ],
          "data": "0x000000000000000000000000000000000000000000000000000000174876e800",
          "blockHash": "0x222567d0da9e3013a4de873e3e648d36b1be0ff5648670b2524361263152617a",
          "blockNumber": "0xa68825",
          "blockTimestamp": "0x6a134bf4",
          "transactionHash": "0xbba5b61f5466c8b592c8384dc7769702e8d2ba13cceb6de2b1ce50c5c8a60d15",
          "transactionIndex": "0x5e",
          "logIndex": "0x106",
          "removed": false
        }
      ],
      "logsBloom": "0x00000000000000000000000000000000000000000000000000000000000000000000000000000000088000000000000000000000000000000000000020200000000000000000000000000000400000000000008000000000000000000000000000000000000800000000000000000800000000000000000000000000000000000000000000002000000000000008000000000000000000000000000000000000020000000000000000000000000000000000000000000000000000000000000000000000000000000000000000000000000000000000000000000000000000000010000000000000000000000000000000000000000000000000000000000000",
      "transactionHash": "0xbba5b61f5466c8b592c8384dc7769702e8d2ba13cceb6de2b1ce50c5c8a60d15",
      "transactionIndex": "0x5e",
      "blockHash": "0x222567d0da9e3013a4de873e3e648d36b1be0ff5648670b2524361263152617a",
      "blockNumber": "0xa68825",
      "gasUsed": "0xb352",
      "effectiveGasPrice": "0x3f687d39",
      "from": "0xbab179854ba39cfcfb2d1d98a05fcfa113cf4ac1",
      "to": "0x67a5f0b0553e22689a539b80cbe4a1cd126e2bde",
      "contractAddress": null
    },
    {
      "type": "0x2",
      "status": "0x1",
      "cumulativeGasUsed": "0x177b656",
      "logs": [
        {
          "address": "0x67a5f0b0553e22689a539b80cbe4a1cd126e2bde",
          "topics": [
            "0xddf252ad1be2c89b69c2b068fc378daa952ba7f163c4a11628f55a4df523b3ef",
            "0x000000000000000000000000bab179854ba39cfcfb2d1d98a05fcfa113cf4ac1",
            "0x0000000000000000000000005dba8515af063db0c243c15ece7b99f91459c7c3"
          ],
          "data": "0x000000000000000000000000000000000000000000000000000000174876e800",
          "blockHash": "0x222567d0da9e3013a4de873e3e648d36b1be0ff5648670b2524361263152617a",
          "blockNumber": "0xa68825",
          "blockTimestamp": "0x6a134bf4",
          "transactionHash": "0x6f2f513c17f62cccfe8d4fa1194be653c47445be264dbb40433d665d853ae8ed",
          "transactionIndex": "0x8b",
          "logIndex": "0x18d",
          "removed": false
        },
        {
          "address": "0x5dba8515af063db0c243c15ece7b99f91459c7c3",
          "topics": [
            "0x2da466a7b24304f47e87fa2e1e5a81b9831ce54fec19055ce277ca2f39ba42c4",
            "0x00000000000000000000000067a5f0b0553e22689a539b80cbe4a1cd126e2bde"
          ],
          "data": "0x000000000000000000000000000000000000000000000000000000174876e800",
          "blockHash": "0x222567d0da9e3013a4de873e3e648d36b1be0ff5648670b2524361263152617a",
          "blockNumber": "0xa68825",
          "blockTimestamp": "0x6a134bf4",
          "transactionHash": "0x6f2f513c17f62cccfe8d4fa1194be653c47445be264dbb40433d665d853ae8ed",
          "transactionIndex": "0x8b",
          "logIndex": "0x18e",
          "removed": false
        },
        {
          "address": "0x5dba8515af063db0c243c15ece7b99f91459c7c3",
          "topics": [
            "0x05f47829691a1f710b0620aedd52749bb09d8abe4bb530d306db920a71b0d7ce",
            "0x00000000000000000000000067a5f0b0553e22689a539b80cbe4a1cd126e2bde"
          ],
          "data": "0x000000000000000000000000000000000000000000000000000000174876e800",
          "blockHash": "0x222567d0da9e3013a4de873e3e648d36b1be0ff5648670b2524361263152617a",
          "blockNumber": "0xa68825",
          "blockTimestamp": "0x6a134bf4",
          "transactionHash": "0x6f2f513c17f62cccfe8d4fa1194be653c47445be264dbb40433d665d853ae8ed",
          "transactionIndex": "0x8b",
          "logIndex": "0x18f",
          "removed": false
        }
      ],
      "logsBloom": "0x00000000000000000000000000000000000000000000000000000000000000000000000000000000088000000000000000000000000000000000000020000000000000000000000000000808400000000000008000000000000000000000200000000080000800000000000000000800000000008000000000000010000200000000000000002000000000000088000008000000000000000000000000000000000000100000000000000000000000000000000000000000000000000000000000000002000000000000000000000000000000020002000000000000000000000040000000200000000000000000000000000000000000000000000000000000",
      "transactionHash": "0x6f2f513c17f62cccfe8d4fa1194be653c47445be264dbb40433d665d853ae8ed",
      "transactionIndex": "0x8b",
      "blockHash": "0x222567d0da9e3013a4de873e3e648d36b1be0ff5648670b2524361263152617a",
      "blockNumber": "0xa68825",
      "gasUsed": "0x1446f",
      "effectiveGasPrice": "0x3f687d39",
      "from": "0xbab179854ba39cfcfb2d1d98a05fcfa113cf4ac1",
      "to": "0x5dba8515af063db0c243c15ece7b99f91459c7c3",
      "contractAddress": null
    }
  ],
  "libraries": [],
  "pending": [],
  "returns": {},
  "timestamp": 1779649524812,
  "chain": 11155111,
  "commit": "b88d511c"
}