{
  "transactions": [
    {
      "hash": "0xb17911e0336157b88fb67f136aabb999654685a0525817374df5bcf0b42c2464",
      "transactionType": "CALL",
      "contractName": null,
      "contractAddress": "0x1b66e510b845a746334b866b62c64746bebff857",
      "function": "approve(address,uint256)",
      "arguments": [
        "0x5DBa8515af063Db0c243C15eCE7B99F91459C7C3",
        "10000000000000"
      ],
      "transaction": {
        "from": "0xbab179854ba39cfcfb2d1d98a05fcfa113cf4ac1",
        "to": "0x1b66e510b845a746334b866b62c64746bebff857",
        "gas": "0xf7bf",
        "value": "0x0",
        "input": "0x095ea7b30000000000000000000000005dba8515af063db0c243c15ece7b99f91459c7c3000000000000000000000000000000000000000000000000000009184e72a000",
        "nonce": "0xa",
        "chainId": "0x13882"
      },
      "additionalContracts": [],
      "isFixedGasLimit": false
    },
    {
      "hash": "0x9358642a73b5552d4b4e2ebd14efd034b8cefe0163b0ce7af1eb3d8cb0a5ef45",
      "transactionType": "CALL",
      "contractName": null,
      "contractAddress": "0x5dba8515af063db0c243c15ece7b99f91459c7c3",
      "function": "depositToNode(address,uint256)",
      "arguments": [
        "0x1b66e510B845a746334B866b62C64746bEbfF857",
        "10000000000000"
      ],
      "transaction": {
        "from": "0xbab179854ba39cfcfb2d1d98a05fcfa113cf4ac1",
        "to": "0x5dba8515af063db0c243c15ece7b99f91459c7c3",
        "gas": "0x1da8d",
        "value": "0x0",
        "input": "0xb65b78d10000000000000000000000001b66e510b845a746334b866b62c64746bebff857000000000000000000000000000000000000000000000000000009184e72a000",
        "nonce": "0xb",
        "chainId": "0x13882"
      },
      "additionalContracts": [],
      "isFixedGasLimit": false
    }
  ],
  "receipts": [
    {
      "type": "0x2",
      "status": "0x1",
      "cumulativeGasUsed": "0xb6a6",
      "logs": [
        {
          "address": "0x1b66e510b845a746334b866b62c64746bebff857",
          "topics": [
            "0x8c5be1e5ebec7d5bd14f71427d1e84f3dd0314c0f7b2291e5b200ac8c7c3b925",
            "0x000000000000000000000000bab179854ba39cfcfb2d1d98a05fcfa113cf4ac1",
            "0x0000000000000000000000005dba8515af063db0c243c15ece7b99f91459c7c3"
          ],
          "data": "0x000000000000000000000000000000000000000000000000000009184e72a000",
          "blockHash": "0x4a169448096f3732ff3465eb86e03a240be254f8056db9d5be96922b2df56e0f",
          "blockNumber": "0x252446f",
          "blockTimestamp": "0x6a134bc3",
          "transactionHash": "0xb17911e0336157b88fb67f136aabb999654685a0525817374df5bcf0b42c2464",
          "transactionIndex": "0x0",
          "logIndex": "0x0",
          "removed": false
        },
        {
          "address": "0x0000000000000000000000000000000000001010",
          "topics": [
            "0x4dfe1bbbcf077ddc3e01291eea2d5c70c2b422b415d95645b9adcfd678cb1d63",
            "0x0000000000000000000000000000000000000000000000000000000000001010",
            "0x000000000000000000000000bab179854ba39cfcfb2d1d98a05fcfa113cf4ac1",
            "0x0000000000000000000000007ee41d8a25641000661b1ef5e6ae8a00400466b0"
          ],
          "data": "0x000000000000000000000000000000000000000000000000000d71cc9e3923f80000000000000000000000000000000000000000000000001338fd5bd9faf6cb000000000000000000000000000000000000000000004c9097d924d068cdb050000000000000000000000000000000000000000000000000132b8b8f3bc1d2d3000000000000000000000000000000000000000000004c9097e6969d0706d448",
          "blockHash": "0x4a169448096f3732ff3465eb86e03a240be254f8056db9d5be96922b2df56e0f",
          "blockNumber": "0x252446f",
          "blockTimestamp": "0x6a134bc3",
          "transactionHash": "0xb17911e0336157b88fb67f136aabb999654685a0525817374df5bcf0b42c2464",
          "transactionIndex": "0x0",
          "logIndex": "0x1",
          "removed": false
        }
      ],
      "logsBloom": "0x00000000000000000000000000000000000000000000000000000000000000000000000000000000088000000000000000108000000000000000000020200000000000000000000000000004400000800000000000000000000100000000000000000000000000000000000000000800000000000000000080000000000000000000000000000000020000000408000000000000000000000000000000000000220000000000000000000000000000000000002000000000000000000000004000000000000000000001000000000000000000400000000000100000000000000010000000000000000000000000000000000000000000000000000000100000",
      "transactionHash": "0xb17911e0336157b88fb67f136aabb999654685a0525817374df5bcf0b42c2464",
      "transactionIndex": "0x0",
      "blockHash": "0x4a169448096f3732ff3465eb86e03a240be254f8056db9d5be96922b2df56e0f",
      "blockNumber": "0x252446f",
      "gasUsed": "0xb6a6",
      "effectiveGasPrice": "0x12d80662d3",
      "from": "0xbab179854ba39cfcfb2d1d98a05fcfa113cf4ac1",
      "to": "0x1b66e510b845a746334b866b62c64746bebff857",
      "contractAddress": null
    },
    {
      "type": "0x2",
      "status": "0x1",
      "cumulativeGasUsed": "0x23979",
      "logs": [
        {
          "address": "0x1b66e510b845a746334b866b62c64746bebff857",
          "topics": [
            "0xddf252ad1be2c89b69c2b068fc378daa952ba7f163c4a11628f55a4df523b3ef",
            "0x000000000000000000000000bab179854ba39cfcfb2d1d98a05fcfa113cf4ac1",
            "0x0000000000000000000000005dba8515af063db0c243c15ece7b99f91459c7c3"
          ],
          "data": "0x000000000000000000000000000000000000000000000000000009184e72a000",
          "blockHash": "0x4a169448096f3732ff3465eb86e03a240be254f8056db9d5be96922b2df56e0f",
          "blockNumber": "0x252446f",
          "blockTimestamp": "0x6a134bc3",
          "transactionHash": "0x9358642a73b5552d4b4e2ebd14efd034b8cefe0163b0ce7af1eb3d8cb0a5ef45",
          "transactionIndex": "0x1",
          "logIndex": "0x2",
          "removed": false
        },
        {
          "address": "0x5dba8515af063db0c243c15ece7b99f91459c7c3",
          "topics": [
            "0x2da466a7b24304f47e87fa2e1e5a81b9831ce54fec19055ce277ca2f39ba42c4",
            "0x0000000000000000000000001b66e510b845a746334b866b62c64746bebff857"
          ],
          "data": "0x000000000000000000000000000000000000000000000000000009184e72a000",
          "blockHash": "0x4a169448096f3732ff3465eb86e03a240be254f8056db9d5be96922b2df56e0f",
          "blockNumber": "0x252446f",
          "blockTimestamp": "0x6a134bc3",
          "transactionHash": "0x9358642a73b5552d4b4e2ebd14efd034b8cefe0163b0ce7af1eb3d8cb0a5ef45",
          "transactionIndex": "0x1",
          "logIndex": "0x3",
          "removed": false
        },
        {
          "address": "0x5dba8515af063db0c243c15ece7b99f91459c7c3",
          "topics": [
            "0x05f47829691a1f710b0620aedd52749bb09d8abe4bb530d306db920a71b0d7ce",
            "0x0000000000000000000000001b66e510b845a746334b866b62c64746bebff857"
          ],
          "data": "0x000000000000000000000000000000000000000000000000000009184e72a000",
          "blockHash": "0x4a169448096f3732ff3465eb86e03a240be254f8056db9d5be96922b2df56e0f",
          "blockNumber": "0x252446f",
          "blockTimestamp": "0x6a134bc3",
          "transactionHash": "0x9358642a73b5552d4b4e2ebd14efd034b8cefe0163b0ce7af1eb3d8cb0a5ef45",
          "transactionIndex": "0x1",
          "logIndex": "0x4",
          "removed": false
        },
        {
          "address": "0x0000000000000000000000000000000000001010",
          "topics": [
            "0x4dfe1bbbcf077ddc3e01291eea2d5c70c2b422b415d95645b9adcfd678cb1d63",
            "0x0000000000000000000000000000000000000000000000000000000000001010",
            "0x000000000000000000000000bab179854ba39cfcfb2d1d98a05fcfa113cf4ac1",
            "0x0000000000000000000000007ee41d8a25641000661b1ef5e6ae8a00400466b0"
          ],
          "data": "0x000000000000000000000000000000000000000000000000001c7941ade667fc000000000000000000000000000000000000000000000000132b8b8f3b94dff9000000000000000000000000000000000000000000004c9097e6969d0706d448000000000000000000000000000000000000000000000000130f124d8dae77fd000000000000000000000000000000000000000000004c9098030fdeb4ed3c44",
          "blockHash": "0x4a169448096f3732ff3465eb86e03a240be254f8056db9d5be96922b2df56e0f",
          "blockNumber": "0x252446f",
          "blockTimestamp": "0x6a134bc3",
          "transactionHash": "0x9358642a73b5552d4b4e2ebd14efd034b8cefe0163b0ce7af1eb3d8cb0a5ef45",
          "transactionIndex": "0x1",
          "logIndex": "0x5",
          "removed": false
        }
      ],
      "logsBloom": "0x0000000000000000000000000000000000000000000000000000000000000000000000000000000008800000000000000010800000000000000000002000000000000000000000000000000c400000800000000000000000000100000000200000000000000000000000000000000800000000008000000080000010000200000000000000000000020000000488000008080000000000000000000000000000200000100000000000000000000000000000002000000000000000000000004000000002000004000001000000000000000000420002000000100000000000000040000000000002000000000000000000000000000000000000000000100000",
      "transactionHash": "0x9358642a73b5552d4b4e2ebd14efd034b8cefe0163b0ce7af1eb3d8cb0a5ef45",
      "transactionIndex": "0x1",
      "blockHash": "0x4a169448096f3732ff3465eb86e03a240be254f8056db9d5be96922b2df56e0f",
      "blockNumber": "0x252446f",
      "gasUsed": "0x182d3",
      "effectiveGasPrice": "0x12d80662d3",
      "from": "0xbab179854ba39cfcfb2d1d98a05fcfa113cf4ac1",
      "to": "0x5dba8515af063db0c243c15ece7b99f91459c7c3",
      "contractAddress": null
    }
  ],
  "libraries": [],
  "pending": [],
  "returns": {},
  "timestamp": 1779649475017,
  "chain": 80002,
  "commit": "b88d511c"
}