{
  "transactions": [
    {
      "hash": "0xc40ed5f8e340b8a3ed95e692bc5208245951b5cd9d685677931f47d6f9d0b499",
      "transactionType": "CALL",
      "contractName": null,
      "contractAddress": "0x5dba8515af063db0c243c15ece7b99f91459c7c3",
      "function": "depositToNode(address,uint256)",
      "arguments": [
        "0x0000000000000000000000000000000000000000",
        "30000000000000000000"
      ],
      "transaction": {
        "from": "0xbab179854ba39cfcfb2d1d98a05fcfa113cf4ac1",
        "to": "0x5dba8515af063db0c243c15ece7b99f91459c7c3",
        "gas": "0x10d8e",
        "value": "0x1a055690d9db80000",
        "input": "0xb65b78d10000000000000000000000000000000000000000000000000000000000000000000000000000000000000000000000000000000000000001a055690d9db80000",
        "nonce": "0x9",
        "chainId": "0x13882"
      },
      "additionalContracts": [],
      "isFixedGasLimit": false
    }
  ],
  "receipts": [
    {
      "type": "0x2",
      "status": "0x1",
      "cumulativeGasUsed": "0xdd68",
      "logs": [
        {
          "address": "0x0000000000000000000000000000000000001010",
          "topics": [
            "0xe6497e3ee548a3372136af2fcb0696db31fc6cf20260707645068bd3fe97f3c4",
            "0x0000000000000000000000000000000000000000000000000000000000001010",
            "0x000000000000000000000000bab179854ba39cfcfb2d1d98a05fcfa113cf4ac1",
            "0x0000000000000000000000005dba8515af063db0c243c15ece7b99f91459c7c3"
          ],
          "data": "0x000000000000000000000000000000000000000000000001a055690d9db80000000000000000000000000000000000000000000000000001b38adb1c3438bb7900000000000000000000000000000000000000000000000000000000000000000000000000000000000000000000000000000000000000001335720e9680bb79000000000000000000000000000000000000000000000001a055690d9db80000",
          "blockHash": "0xfac3815600914f84af0be6b0e4dfcb389e878b0c4602ad265ecd52c3156e87c3",
          "blockNumber": "0x252446c",
          "blockTimestamp": "0x6a134bbf",
          "transactionHash": "0xc40ed5f8e340b8a3ed95e692bc5208245951b5cd9d685677931f47d6f9d0b499",
          "transactionIndex": "0x0",
          "logIndex": "0x0",
          "removed": false
        },
        {
          "address": "0x5dba8515af063db0c243c15ece7b99f91459c7c3",
          "topics": [
            "0x2da466a7b24304f47e87fa2e1e5a81b9831ce54fec19055ce277ca2f39ba42c4",
            "0x0000000000000000000000000000000000000000000000000000000000000000"
          ],
          "data": "0x000000000000000000000000000000000000000000000001a055690d9db80000",
          "blockHash": "0xfac3815600914f84af0be6b0e4dfcb389e878b0c4602ad265ecd52c3156e87c3",
          "blockNumber": "0x252446c",
          "blockTimestamp": "0x6a134bbf",
          "transactionHash": "0xc40ed5f8e340b8a3ed95e692bc5208245951b5cd9d685677931f47d6f9d0b499",
          "transactionIndex": "0x0",
          "logIndex": "0x1",
          "removed": false
        },
        {
          "address": "0x5dba8515af063db0c243c15ece7b99f91459c7c3",
          "topics": [
            "0x05f47829691a1f710b0620aedd52749bb09d8abe4bb530d306db920a71b0d7ce",
            "0x0000000000000000000000000000000000000000000000000000000000000000"
          ],
          "data": "0x000000000000000000000000000000000000000000000001a055690d9db80000",
          "blockHash": "0xfac3815600914f84af0be6b0e4dfcb389e878b0c4602ad265ecd52c3156e87c3",
          "blockNumber": "0x252446c",
          "blockTimestamp": "0x6a134bbf",
          "transactionHash": "0xc40ed5f8e340b8a3ed95e692bc5208245951b5cd9d685677931f47d6f9d0b499",
          "transactionIndex": "0x0",
          "logIndex": "0x2",
          "removed": false
        },
        {
          "address": "0x0000000000000000000000000000000000001010",
          "topics": [
            "0x4dfe1bbbcf077ddc3e01291eea2d5c70c2b422b415d95645b9adcfd678cb1d63",
            "0x0000000000000000000000000000000000000000000000000000000000001010",
            "0x000000000000000000000000bab179854ba39cfcfb2d1d98a05fcfa113cf4ac1",
            "0x0000000000000000000000007ee41d8a25641000661b1ef5e6ae8a00400466b0"
          ],
          "data": "0x00000000000000000000000000000000000000000000000000104c2545b1d020000000000000000000000000000000000000000000000001b39eb28ebd9b4383000000000000000000000000000000000000000000004c90979af12c953817b0000000000000000000000000000000000000000000000001b38e666977e97363000000000000000000000000000000000000000000004c9097ab3d51dae9e7d0",
          "blockHash": "0xfac3815600914f84af0be6b0e4dfcb389e878b0c4602ad265ecd52c3156e87c3",
          "blockNumber": "0x252446c",
          "blockTimestamp": "0x6a134bbf",
          "transactionHash": "0xc40ed5f8e340b8a3ed95e692bc5208245951b5cd9d685677931f47d6f9d0b499",
          "transactionIndex": "0x0",
          "logIndex": "0x3",
          "removed": false
        }
      ],
      "logsBloom": "0x00000000000000000000000000000000000000000000000000000000000000000000000000000000088000100000000000008000000000000000000020000000000000000000000000000000400000800000000000000000000100000000200000000000020000000000000000000800000000008000000080000000000200000000000000000000020000000488000008000000000000000000000000000000200000100000000000000000000000000000000000000000000000000000004000000000000000000001000000000000000000420002800000108000000020000040000000000000000000000000000000000000000000000000000000100000",
      "transactionHash": "0xc40ed5f8e340b8a3ed95e692bc5208245951b5cd9d685677931f47d6f9d0b499",
      "transactionIndex": "0x0",
      "blockHash": "0xfac3815600914f84af0be6b0e4dfcb389e878b0c4602ad265ecd52c3156e87c3",
      "blockNumber": "0x252446c",
      "gasUsed": "0xdd68",
      "effectiveGasPrice": "0x12d80662d3",
      "from": "0xbab179854ba39cfcfb2d1d98a05fcfa113cf4ac1",
      "to": "0x5dba8515af063db0c243c15ece7b99f91459c7c3",
      "contractAddress": null
    }
  ],
  "libraries": [],
  "pending": [],
  "returns": {},
  "timestamp": 1779649469948,
  "chain": 80002,
  "commit": "b88d511c"
}