{
  "transactions": [
    {
      "hash": "0x42e66e394e62c4e0159063e9f3cd20ad164f0e6a7b4dc7b37b03a13f4231bb3e",
      "transactionType": "CALL",
      "contractName": null,
      "contractAddress": "0x67a5f0b0553e22689a539b80cbe4a1cd126e2bde",
      "function": "approve(address,uint256)",
      "arguments": [
        "0x5DBa8515af063Db0c243C15eCE7B99F91459C7C3",
        "100000000000"
      ],
      "transaction": {
        "from": "0xbab179854ba39cfcfb2d1d98a05fcfa113cf4ac1",
        "to": "0x67a5f0b0553e22689a539b80cbe4a1cd126e2bde",
        "gas": "0x10641",
        "value": "0x0",
        "input": "0x095ea7b30000000000000000000000005dba8515af063db0c243c15ece7b99f91459c7c3000000000000000000000000000000000000000000000000000000174876e800",
        "nonce": "0x9",
        "chainId": "0x14a34"
      },
      "additionalContracts": [],
      "isFixedGasLimit": false
    },
    {
      "hash": null,
      "transactionType": "CALL",
      "contractName": null,
      "contractAddress": "0x5dba8515af063db0c243c15ece7b99f91459c7c3",
      "function": "depositToNode(address,uint256)",
      "arguments": [
        "0x67a5F0B0553E22689A539b80cBE4A1Cd126E2Bde",
        "100000000000"
      ],
      "transaction": {
        "from": "0xbab179854ba39cfcfb2d1d98a05fcfa113cf4ac1",
        "to": "0x5dba8515af063db0c243c15ece7b99f91459c7c3",
        "gas": "0x1c01e",
        "value": "0x0",
        "input": "0xb65b78d100000000000000000000000067a5f0b0553e22689a539b80cbe4a1cd126e2bde000000000000000000000000000000000000000000000000000000174876e800",
        "nonce": "0xa",
        "chainId": "0x14a34"
      },
      "additionalContracts": [],
      "isFixedGasLimit": false
    }
  ],
  "receipts": [],
  "libraries": [],
  "pending": [
    "0x42e66e394e62c4e0159063e9f3cd20ad164f0e6a7b4dc7b37b03a13f4231bb3e"
  ],
  "returns": {},
  "timestamp": 1779649483062,
  "chain": 84532,
  "commit": "b88d511c"
}