{
  "transactions": [
    {
      "hash": "0x6aa24ec06eca65b08571100428ca4611fc2c27a1682d50c36a17ca86860c7ddc",
      "transactionType": "CALL",
      "contractName": null,
      "contractAddress": "0x67a5f0b0553e22689a539b80cbe4a1cd126e2bde",
      "function": "approve(address,uint256)",
      "arguments": [
        "0x5DBa8515af063Db0c243C15eCE7B99F91459C7C3",
        "100000000000"
      ],
      "transaction": {
        "from": "0xbab179854ba39cfcfb2d1d98a05fcfa113cf4ac1",
        "to": "0x67a5f0b0553e22689a539b80cbe4a1cd126e2bde",
        "gas": "0x10641",
        "value": "0x0",
        "input": "0x095ea7b30000000000000000000000005dba8515af063db0c243c15ece7b99f91459c7c3000000000000000000000000000000000000000000000000000000174876e800",
        "nonce": "0xb",
        "chainId": "0x14a34"
      },
      "additionalContracts": [],
      "isFixedGasLimit": false
    },
    {
      "hash": "0x31f569f97a93ad5c4260dbc62dc8737f09ee85b5d094df1c624d8314d7ecd704",
      "transactionType": "CALL",
      "contractName": null,
      "contractAddress": "0x5dba8515af063db0c243c15ece7b99f91459c7c3",
      "function": "depositToNode(address,uint256)",
      "arguments": [
        "0x67a5F0B0553E22689A539b80cBE4A1Cd126E2Bde",
        "100000000000"
      ],
      "transaction": {
        "from": "0xbab179854ba39cfcfb2d1d98a05fcfa113cf4ac1",
        "to": "0x5dba8515af063db0c243c15ece7b99f91459c7c3",
        "gas": "0x1c01e",
        "value": "0x0",
        "input": "0xb65b78d100000000000000000000000067a5f0b0553e22689a539b80cbe4a1cd126e2bde000000000000000000000000000000000000000000000000000000174876e800",
        "nonce": "0xc",
        "chainId": "0x14a34"
      },
      "additionalContracts": [],
      "isFixedGasLimit": false
    }
  ],
  "receipts": [
    {
      "type": "0x2",
      "status": "0x1",
      "cumulativeGasUsed": "0x78f46",
      "logs": [
        {
          "address": "0x67a5f0b0553e22689a539b80cbe4a1cd126e2bde",
          "topics": [
            "0x8c5be1e5ebec7d5bd14f71427d1e84f3dd0314c0f7b2291e5b200ac8c7c3b925",
            "0x000000000000000000000000bab179854ba39cfcfb2d1d98a05fcfa113cf4ac1",
            "0x0000000000000000000000005dba8515af063db0c243c15ece7b99f91459c7c3"
          ],
          "data": "0x000000000000000000000000000000000000000000000000000000174876e800",
          "blockHash": "0x0000000000000000000000000000000000000000000000000000000000000000",
          "blockNumber": "0x27ff70a",
          "blockTimestamp": "0x6a134cf4",
          "transactionHash": "0x6aa24ec06eca65b08571100428ca4611fc2c27a1682d50c36a17ca86860c7ddc",
          "transactionIndex": "0x2",
          "logIndex": "0xa",
          "removed": false
        }
      ],
      "logsBloom": "0x00000000000000000000000000000000000000000000000000000000000000000000000000000000088000000000000000000000000000000000000020200000000000000000000000000000400000000000008000000000000000000000000000000000000800000000000000000800000000000000000000000000000000000000000000002000000000000008000000000000000000000000000000000000020000000000000000000000000000000000000000000000000000000000000000000000000000000000000000000000000000000000000000000000000000000010000000000000000000000000000000000000000000000000000000000000",
      "transactionHash": "0x6aa24ec06eca65b08571100428ca4611fc2c27a1682d50c36a17ca86860c7ddc",
      "transactionIndex": "0x2",
      "blockHash": "0x0000000000000000000000000000000000000000000000000000000000000000",
      "blockNumber": "0x27ff70a",
      "gasUsed": "0xb352",
      "effectiveGasPrice": "0x5b8d80",
      "blobGasUsed": "0xae38",
      "from": "0xbab179854ba39cfcfb2d1d98a05fcfa113cf4ac1",
      "to": "0x67a5f0b0553e22689a539b80cbe4a1cd126e2bde",
      "contractAddress": null,
      "l1GasPrice": "0x3c063a5b",
      "l1GasUsed": "0x640",
      "l1Fee": "0x1617f994a",
      "l1BaseFeeScalar": "0x44d",
      "l1BlobBaseFee": "0x3c1394e",
      "l1BlobBaseFeeScalar": "0xa118b",
      "daFootprintGasScalar": "0x1be"
    },
    {
      "type": "0x2",
      "status": "0x1",
      "cumulativeGasUsed": "0x8d3b5",
      "logs": [
        {
          "address": "0x67a5f0b0553e22689a539b80cbe4a1cd126e2bde",
          "topics": [
            "0xddf252ad1be2c89b69c2b068fc378daa952ba7f163c4a11628f55a4df523b3ef",
            "0x000000000000000000000000bab179854ba39cfcfb2d1d98a05fcfa113cf4ac1",
            "0x0000000000000000000000005dba8515af063db0c243c15ece7b99f91459c7c3"
          ],
          "data": "0x000000000000000000000000000000000000000000000000000000174876e800",
          "blockHash": "0xe11de9940f19fecb57bde312dbd9ee4e85c916b8b27f3e082ddc910ebb3b6ece",
          "blockNumber": "0x27ff70a",
          "blockTimestamp": "0x6a134cf4",
          "transactionHash": "0x31f569f97a93ad5c4260dbc62dc8737f09ee85b5d094df1c624d8314d7ecd704",
          "transactionIndex": "0x3",
          "logIndex": "0xb",
          "removed": false
        },
        {
          "address": "0x5dba8515af063db0c243c15ece7b99f91459c7c3",
          "topics": [
            "0x2da466a7b24304f47e87fa2e1e5a81b9831ce54fec19055ce277ca2f39ba42c4",
            "0x00000000000000000000000067a5f0b0553e22689a539b80cbe4a1cd126e2bde"
          ],
          "data": "0x000000000000000000000000000000000000000000000000000000174876e800",
          "blockHash": "0xe11de9940f19fecb57bde312dbd9ee4e85c916b8b27f3e082ddc910ebb3b6ece",
          "blockNumber": "0x27ff70a",
          "blockTimestamp": "0x6a134cf4",
          "transactionHash": "0x31f569f97a93ad5c4260dbc62dc8737f09ee85b5d094df1c624d8314d7ecd704",
          "transactionIndex": "0x3",
          "logIndex": "0xc",
          "removed": false
        },
        {
          "address": "0x5dba8515af063db0c243c15ece7b99f91459c7c3",
          "topics": [
            "0x05f47829691a1f710b0620aedd52749bb09d8abe4bb530d306db920a71b0d7ce",
            "0x00000000000000000000000067a5f0b0553e22689a539b80cbe4a1cd126e2bde"
          ],
          "data": "0x000000000000000000000000000000000000000000000000000000174876e800",
          "blockHash": "0xe11de9940f19fecb57bde312dbd9ee4e85c916b8b27f3e082ddc910ebb3b6ece",
          "blockNumber": "0x27ff70a",
          "blockTimestamp": "0x6a134cf4",
          "transactionHash": "0x31f569f97a93ad5c4260dbc62dc8737f09ee85b5d094df1c624d8314d7ecd704",
          "transactionIndex": "0x3",
          "logIndex": "0xd",
          "removed": false
        }
      ],
      "logsBloom": "0x00000000000000000000000000000000000000000000000000000000000000000000000000000000088000000000000000000000000000000000000020000000000000000000000000000808400000000000008000000000000000000000200000000080000800000000000000000800000000008000000000000010000200000000000000002000000000000088000008000000000000000000000000000000000000100000000000000000000000000000000000000000000000000000000000000002000000000000000000000000000000020002000000000000000000000040000000200000000000000000000000000000000000000000000000000000",
      "transactionHash": "0x31f569f97a93ad5c4260dbc62dc8737f09ee85b5d094df1c624d8314d7ecd704",
      "transactionIndex": "0x3",
      "blockHash": "0xe11de9940f19fecb57bde312dbd9ee4e85c916b8b27f3e082ddc910ebb3b6ece",
      "blockNumber": "0x27ff70a",
      "gasUsed": "0x1446f",
      "effectiveGasPrice": "0x5b8d80",
      "blobGasUsed": "0xae38",
      "from": "0xbab179854ba39cfcfb2d1d98a05fcfa113cf4ac1",
      "to": "0x5dba8515af063db0c243c15ece7b99f91459c7c3",
      "contractAddress": null,
      "l1GasPrice": "0x3c063a5b",
      "l1GasUsed": "0x640",
      "l1Fee": "0x1617f994a",
      "l1BaseFeeScalar": "0x44d",
      "l1BlobBaseFee": "0x3c1394e",
      "l1BlobBaseFeeScalar": "0xa118b",
      "daFootprintGasScalar": "0x1be"
    }
  ],
  "libraries": [],
  "pending": [],
  "returns": {},
  "timestamp": 1779649780158,
  "chain": 84532,
  "commit": "b88d511c"
}