{
  "transactions": [
    {
      "hash": "0x6410887b3ba0e1e99c3ebee574c33ce0dba7289a2fe07d70ceb44e0306649f1d",
      "transactionType": "CALL",
      "contractName": null,
      "contractAddress": "0x5dba8515af063db0c243c15ece7b99f91459c7c3",
      "function": "depositToNode(address,uint256)",
      "arguments": [
        "0x0000000000000000000000000000000000000000",
        "30000000000000000"
      ],
      "transaction": {
        "from": "0xbab179854ba39cfcfb2d1d98a05fcfa113cf4ac1",
        "to": "0x5dba8515af063db0c243c15ece7b99f91459c7c3",
        "gas": "0x10d6e",
        "value": "0x6a94d74f430000",
        "input": "0xb65b78d10000000000000000000000000000000000000000000000000000000000000000000000000000000000000000000000000000000000000000006a94d74f430000",
        "nonce": "0xa",
        "chainId": "0xe705"
      },
      "additionalContracts": [],
      "isFixedGasLimit": false
    }
  ],
  "receipts": [
    {
      "type": "0x2",
      "status": "0x1",
      "cumulativeGasUsed": "0xc310",
      "logs": [
        {
          "address": "0x5dba8515af063db0c243c15ece7b99f91459c7c3",
          "topics": [
            "0x2da466a7b24304f47e87fa2e1e5a81b9831ce54fec19055ce277ca2f39ba42c4",
            "0x0000000000000000000000000000000000000000000000000000000000000000"
          ],
          "data": "0x000000000000000000000000000000000000000000000000006a94d74f430000",
          "blockHash": "0x6c4052e071d8963b483b77d41586aeecdfcb9ef224f248e99a208bbff1a5e8fc",
          "blockNumber": "0x1c597b1",
          "blockTimestamp": "0x6a134bbc",
          "transactionHash": "0x6410887b3ba0e1e99c3ebee574c33ce0dba7289a2fe07d70ceb44e0306649f1d",
          "transactionIndex": "0x0",
          "logIndex": "0x0",
          "removed": false
        },
        {
          "address": "0x5dba8515af063db0c243c15ece7b99f91459c7c3",
          "topics": [
            "0x05f47829691a1f710b0620aedd52749bb09d8abe4bb530d306db920a71b0d7ce",
            "0x0000000000000000000000000000000000000000000000000000000000000000"
          ],
          "data": "0x000000000000000000000000000000000000000000000000006a94d74f430000",
          "blockHash": "0x6c4052e071d8963b483b77d41586aeecdfcb9ef224f248e99a208bbff1a5e8fc",
          "blockNumber": "0x1c597b1",
          "blockTimestamp": "0x6a134bbc",
          "transactionHash": "0x6410887b3ba0e1e99c3ebee574c33ce0dba7289a2fe07d70ceb44e0306649f1d",
          "transactionIndex": "0x0",
          "logIndex": "0x1",
          "removed": false
        }
      ],
      "logsBloom": "0x00000000000000000000000000000000000000000000000000000000000000000000000000000000000000000000000000000000000000000000000000000000000000000000000000000000000000000000000000000000000000000000200000000000020000000000000000000800000000008000000000000000000200000000000000000000000000000080000008000000000000000000000000000000000000100000000000000000000000000000000000000000000000000000000000000000000000000000000000000000000000020002000000000000000020000040000000000000000000000000000000000000000000000000000000000000",
      "transactionHash": "0x6410887b3ba0e1e99c3ebee574c33ce0dba7289a2fe07d70ceb44e0306649f1d",
      "transactionIndex": "0x0",
      "blockHash": "0x6c4052e071d8963b483b77d41586aeecdfcb9ef224f248e99a208bbff1a5e8fc",
      "blockNumber": "0x1c597b1",
      "gasUsed": "0xc310",
      "effectiveGasPrice": "0x2331c40",
      "from": "0xbab179854ba39cfcfb2d1d98a05fcfa113cf4ac1",
      "to": "0x5dba8515af063db0c243c15ece7b99f91459c7c3",
      "contractAddress": null
    }
  ],
  "libraries": [],
  "pending": [],
  "returns": {},
  "timestamp": 1779649471645,
  "chain": 59141,
  "commit": "b88d511c"
}